{
  "_format": "hh-sol-artifact-1",
  "contractName": "PairNewOrder",
  "sourceName": "contracts/PairOrder.sol",
  "abi": [
    {
      "inputs": [
        {
          "internalType": "address",
          "name": "_tokne0",
          "type": "address"
        },
        {
          "internalType": "address",
          "name": "_token1",
          "type": "address"
        }
      ],
      "stateMutability": "nonpayable",
      "type": "constructor"
    },
    {
      "anonymous": false,
      "inputs": [
        {
          "indexed": false,
          "internalType": "uint8",
          "name": "_isBuy",
          "type": "uint8"
        },
        {
          "indexed": false,
          "internalType": "uint256",
          "name": "_amount",
          "type": "uint256"
        },
        {
          "indexed": false,
          "internalType": "uint256",
          "name": "_price",
          "type": "uint256"
        },
        {
          "indexed": true,
          "internalType": "address",
          "name": "trader",
          "type": "address"
        }
      ],
      "name": "CreateLimitOrder",
      "type": "event"
    },
    {
      "anonymous": false,
      "inputs": [
        {
          "indexed": false,
          "internalType": "uint8",
          "name": "_isBuy",
          "type": "uint8"
        },
        {
          "indexed": false,
          "internalType": "uint256",
          "name": "_amount",
          "type": "uint256"
        },
        {
          "indexed": false,
          "internalType": "uint256",
          "name": "_price",
          "type": "uint256"
        }
      ],
      "name": "MarketOrder",
      "type": "event"
    },
    {
      "anonymous": false,
      "inputs": [
        {
          "indexed": false,
          "internalType": "uint8",
          "name": "_isBuy",
          "type": "uint8"
        },
        {
          "indexed": false,
          "internalType": "uint256",
          "name": "_amount",
          "type": "uint256"
        },
        {
          "indexed": false,
          "internalType": "uint256",
          "name": "_price",
          "type": "uint256"
        },
        {
          "indexed": true,
          "internalType": "address",
          "name": "trader",
          "type": "address"
        }
      ],
      "name": "RemoveOrder",
      "type": "event"
    },
    {
      "anonymous": false,
      "inputs": [
        {
          "indexed": false,
          "internalType": "uint8",
          "name": "_isBuy",
          "type": "uint8"
        },
        {
          "indexed": false,
          "internalType": "uint256",
          "name": "_amount",
          "type": "uint256"
        },
        {
          "indexed": true,
          "internalType": "address",
          "name": "trader",
          "type": "address"
        }
      ],
      "name": "SumMarketOrder",
      "type": "event"
    },
    {
      "anonymous": false,
      "inputs": [
        {
          "indexed": false,
          "internalType": "uint8",
          "name": "_isBuy",
          "type": "uint8"
        },
        {
          "indexed": false,
          "internalType": "uint256",
          "name": "newPriceOrder",
          "type": "uint256"
        },
        {
          "indexed": false,
          "internalType": "uint256",
          "name": "newAmount",
          "type": "uint256"
        },
        {
          "indexed": true,
          "internalType": "address",
          "name": "trader",
          "type": "address"
        }
      ],
      "name": "UpdateOrder",
      "type": "event"
    },
    {
      "inputs": [
        {
          "internalType": "uint256",
          "name": "_price",
          "type": "uint256"
        },
        {
          "internalType": "uint8",
          "name": "_isBuy",
          "type": "uint8"
        }
      ],
      "name": "_findIndex",
      "outputs": [
        {
          "internalType": "uint256",
          "name": "",
          "type": "uint256"
        }
      ],
      "stateMutability": "view",
      "type": "function"
    },
    {
      "inputs": [
        {
          "internalType": "uint8",
          "name": "_isBuy",
          "type": "uint8"
        },
        {
          "internalType": "uint256",
          "name": "index",
          "type": "uint256"
        }
      ],
      "name": "_findPrevOrder",
      "outputs": [
        {
          "internalType": "uint256",
          "name": "",
          "type": "uint256"
        }
      ],
      "stateMutability": "view",
      "type": "function"
    },
    {
      "inputs": [
        {
          "internalType": "address",
          "name": "",
          "type": "address"
        },
        {
          "internalType": "address",
          "name": "",
          "type": "address"
        }
      ],
      "name": "balancesSpot",
      "outputs": [
        {
          "internalType": "uint256",
          "name": "",
          "type": "uint256"
        }
      ],
      "stateMutability": "view",
      "type": "function"
    },
    {
      "inputs": [
        {
          "internalType": "address",
          "name": "",
          "type": "address"
        },
        {
          "internalType": "address",
          "name": "",
          "type": "address"
        }
      ],
      "name": "balancesTrade",
      "outputs": [
        {
          "internalType": "uint256",
          "name": "",
          "type": "uint256"
        }
      ],
      "stateMutability": "view",
      "type": "function"
    },
    {
      "inputs": [
        {
          "internalType": "uint8",
          "name": "_isBuy",
          "type": "uint8"
        },
        {
          "internalType": "uint256",
          "name": "_amount",
          "type": "uint256"
        },
        {
          "internalType": "uint256",
          "name": "_price",
          "type": "uint256"
        },
        {
          "internalType": "uint256",
          "name": "prevNodeID",
          "type": "uint256"
        }
      ],
      "name": "createLimitOrder",
      "outputs": [],
      "stateMutability": "nonpayable",
      "type": "function"
    },
    {
      "inputs": [
        {
          "internalType": "uint8",
          "name": "_isBuy",
          "type": "uint8"
        },
        {
          "internalType": "uint256",
          "name": "amount",
          "type": "uint256"
        },
        {
          "internalType": "uint256",
          "name": "_price",
          "type": "uint256"
        }
      ],
      "name": "createMarketOrder",
      "outputs": [
        {
          "internalType": "uint256",
          "name": "",
          "type": "uint256"
        }
      ],
      "stateMutability": "nonpayable",
      "type": "function"
    },
    {
      "inputs": [
        {
          "internalType": "uint256",
          "name": "amount",
          "type": "uint256"
        },
        {
          "internalType": "address",
          "name": "token",
          "type": "address"
        }
      ],
      "name": "deposit",
      "outputs": [],
      "stateMutability": "nonpayable",
      "type": "function"
    },
    {
      "inputs": [],
      "name": "getMarketOrder",
      "outputs": [
        {
          "components": [
            {
              "internalType": "uint8",
              "name": "isBuy",
              "type": "uint8"
            },
            {
              "internalType": "uint256",
              "name": "amount",
              "type": "uint256"
            },
            {
              "internalType": "uint256",
              "name": "price",
              "type": "uint256"
            },
            {
              "internalType": "uint256",
              "name": "date",
              "type": "uint256"
            }
          ],
          "internalType": "struct PairNewOrder.OrderMarket[]",
          "name": "",
          "type": "tuple[]"
        }
      ],
      "stateMutability": "view",
      "type": "function"
    },
    {
      "inputs": [
        {
          "internalType": "uint8",
          "name": "_isBuy",
          "type": "uint8"
        }
      ],
      "name": "getOrderBook",
      "outputs": [
        {
          "components": [
            {
              "internalType": "uint256",
              "name": "id",
              "type": "uint256"
            },
            {
              "internalType": "address",
              "name": "trader",
              "type": "address"
            },
            {
              "internalType": "uint8",
              "name": "isBuy",
              "type": "uint8"
            },
            {
              "internalType": "uint256",
              "name": "createdDate",
              "type": "uint256"
            },
            {
              "internalType": "address",
              "name": "token",
              "type": "address"
            },
            {
              "internalType": "uint256",
              "name": "amount",
              "type": "uint256"
            },
            {
              "internalType": "uint256",
              "name": "price",
              "type": "uint256"
            },
            {
              "internalType": "uint256",
              "name": "filled",
              "type": "uint256"
            },
            {
              "internalType": "uint256",
              "name": "nextNodeID",
              "type": "uint256"
            }
          ],
          "internalType": "struct PairNewOrder.Order[]",
          "name": "",
          "type": "tuple[]"
        }
      ],
      "stateMutability": "view",
      "type": "function"
    },
    {
      "inputs": [
        {
          "internalType": "address",
          "name": "_address",
          "type": "address"
        }
      ],
      "name": "getOrderHisotyByAddress",
      "outputs": [
        {
          "components": [
            {
              "internalType": "string",
              "name": "Type",
              "type": "string"
            },
            {
              "internalType": "uint8",
              "name": "isBuy",
              "type": "uint8"
            },
            {
              "internalType": "uint256",
              "name": "amount",
              "type": "uint256"
            },
            {
              "internalType": "uint256",
              "name": "price",
              "type": "uint256"
            },
            {
              "internalType": "address",
              "name": "Trader",
              "type": "address"
            },
            {
              "internalType": "uint256",
              "name": "date",
              "type": "uint256"
            }
          ],
          "internalType": "struct PairNewOrder.OrderHistory[]",
          "name": "",
          "type": "tuple[]"
        }
      ],
      "stateMutability": "view",
      "type": "function"
    },
    {
      "inputs": [],
      "name": "price",
      "outputs": [
        {
          "internalType": "uint256",
          "name": "",
          "type": "uint256"
        }
      ],
      "stateMutability": "view",
      "type": "function"
    },
    {
      "inputs": [
        {
          "internalType": "uint8",
          "name": "_isBuy",
          "type": "uint8"
        },
        {
          "internalType": "uint256",
          "name": "index",
          "type": "uint256"
        },
        {
          "internalType": "uint256",
          "name": "prevIndex",
          "type": "uint256"
        }
      ],
      "name": "removeOrder",
      "outputs": [],
      "stateMutability": "nonpayable",
      "type": "function"
    },
    {
      "inputs": [
        {
          "internalType": "uint8",
          "name": "_isBuy",
          "type": "uint8"
        },
        {
          "internalType": "uint256",
          "name": "index",
          "type": "uint256"
        },
        {
          "internalType": "uint256",
          "name": "newPriceOrder",
          "type": "uint256"
        },
        {
          "internalType": "uint256",
          "name": "newAmount",
          "type": "uint256"
        },
        {
          "internalType": "uint256",
          "name": "prevIndexAdd",
          "type": "uint256"
        },
        {
          "internalType": "uint256",
          "name": "prevIndexRemove",
          "type": "uint256"
        }
      ],
      "name": "updateOrder",
      "outputs": [],
      "stateMutability": "nonpayable",
      "type": "function"
    },
    {
      "inputs": [
        {
          "internalType": "uint256",
          "name": "amount",
          "type": "uint256"
        },
        {
          "internalType": "address",
          "name": "token",
          "type": "address"
        }
      ],
      "name": "withdraw",
      "outputs": [],
      "stateMutability": "nonpayable",
      "type": "function"
    }
  ],
  "bytecode": "0x60c060405260006080908152507fffffffffffffffffffffffffffffffffffffffffffffffffffffffffffffffff60a0908152503480156200004057600080fd5b5060405162005cf738038062005cf783398181016040528101906200006691906200023e565b8181600160008190555081600160006101000a81548173ffffffffffffffffffffffffffffffffffffffff021916908373ffffffffffffffffffffffffffffffffffffffff16021790555080600260006101000a81548173ffffffffffffffffffffffffffffffffffffffff021916908373ffffffffffffffffffffffffffffffffffffffff16021790555050506001600760008060ff16815260200190815260200160002081905550600160076000600160ff168152602001908152602001600020819055507fffffffffffffffffffffffffffffffffffffffffffffffffffffffffffffffff600560008060ff1681526020019081526020016000206000808152602001908152602001600020600701819055507fffffffffffffffffffffffffffffffffffffffffffffffffffffffffffffffff60056000600160ff168152602001908152602001600020600080815260200190815260200160002060070181905550505062000285565b600080fd5b600073ffffffffffffffffffffffffffffffffffffffff82169050919050565b60006200020682620001d9565b9050919050565b6200021881620001f9565b81146200022457600080fd5b50565b60008151905062000238816200020d565b92915050565b60008060408385031215620002585762000257620001d4565b5b6000620002688582860162000227565b92505060206200027b8582860162000227565b9150509250929050565b60805160a051615a06620002f160003960008181612fc801528181613f3c0152613ffb0152600081816110ef0152818161184c015281816118c70152818161193201528181612aae01528181612eb901528181612fa401528181613edd0152613f9b0152615a066000f3fe608060405234801561001057600080fd5b50600436106100e95760003560e01c80638d778fc61161008c578063ad55809511610066578063ad5580951461026c578063bbfebe021461029c578063d063db8d146102ba578063f14239ff146102ea576100e9565b80638d778fc6146101ee578063a035b1fe1461021e578063a43534101461023c576100e9565b8063671963ef116100c8578063671963ef146101565780636e553f6514610186578063732f51f9146101a25780637b00e059146101be576100e9565b8062f714ce146100ee57806312a2e5df1461010a57806318a6bf5f1461013a575b600080fd5b61010860048036038101906101039190614214565b610306565b005b610124600480360381019061011f9190614254565b610627565b60405161013191906142a3565b60405180910390f35b610154600480360381019061014f91906142f7565b61064c565b005b610170600480360381019061016b91906142f7565b610e9f565b60405161017d91906142a3565b60405180910390f35b6101a0600480360381019061019b9190614214565b611b6d565b005b6101bc60048036038101906101b7919061434a565b611e9c565b005b6101d860048036038101906101d391906143b1565b612a1c565b6040516101e59190614572565b60405180910390f35b61020860048036038101906102039190614594565b612caa565b60405161021591906147a5565b60405180910390f35b610226612e6b565b60405161023391906142a3565b60405180910390f35b610256600480360381019061025191906147c7565b612e71565b60405161026391906142a3565b60405180910390f35b61028660048036038101906102819190614807565b612f9f565b60405161029391906142a3565b60405180910390f35b6102a46130a9565b6040516102b1919061494b565b60405180910390f35b6102d460048036038101906102cf9190614254565b613143565b6040516102e191906142a3565b60405180910390f35b61030460048036038101906102ff919061496d565b613168565b005b80600160009054906101000a900473ffffffffffffffffffffffffffffffffffffffff1673ffffffffffffffffffffffffffffffffffffffff168173ffffffffffffffffffffffffffffffffffffffff1614806103b05750600260009054906101000a900473ffffffffffffffffffffffffffffffffffffffff1673ffffffffffffffffffffffffffffffffffffffff168173ffffffffffffffffffffffffffffffffffffffff16145b6103ef576040517f08c379a00000000000000000000000000000000000000000000000000000000081526004016103e690614a57565b60405180910390fd5b6103f7613c48565b6000831161043a576040517f08c379a000000000000000000000000000000000000000000000000000000000815260040161043190614ac3565b60405180910390fd5b82600360003373ffffffffffffffffffffffffffffffffffffffff1673ffffffffffffffffffffffffffffffffffffffff16815260200190815260200160002060008473ffffffffffffffffffffffffffffffffffffffff1673ffffffffffffffffffffffffffffffffffffffff1681526020019081526020016000205410156104f9576040517f08c379a00000000000000000000000000000000000000000000000000000000081526004016104f090614b2f565b60405180910390fd5b82600360003373ffffffffffffffffffffffffffffffffffffffff1673ffffffffffffffffffffffffffffffffffffffff16815260200190815260200160002060008473ffffffffffffffffffffffffffffffffffffffff1673ffffffffffffffffffffffffffffffffffffffff16815260200190815260200160002060008282546105859190614b7e565b925050819055508173ffffffffffffffffffffffffffffffffffffffff1663a9059cbb33856040518363ffffffff1660e01b81526004016105c7929190614bc1565b602060405180830381600087803b1580156105e157600080fd5b505af11580156105f5573d6000803e3d6000fd5b505050506040513d601f19601f820116820180604052508101906106199190614c22565b50610622613c98565b505050565b6004602052816000526040600020602052806000526040600020600091509150505481565b3373ffffffffffffffffffffffffffffffffffffffff16600560008560ff1660ff168152602001908152602001600020600084815260200190815260200160002060010160009054906101000a900473ffffffffffffffffffffffffffffffffffffffff1673ffffffffffffffffffffffffffffffffffffffff1614610707576040517f08c379a00000000000000000000000000000000000000000000000000000000081526004016106fe90614cc1565b60405180910390fd5b6000600560008560ff1660ff1681526020019081526020016000206000848152602001908152602001600020600701541415610778576040517f08c379a000000000000000000000000000000000000000000000000000000000815260040161076f90614d2d565b60405180910390fd5b610783838383613ca2565b6107c2576040517f08c379a00000000000000000000000000000000000000000000000000000000081526004016107b990614d99565b60405180910390fd5b6000600560008560ff1660ff168152602001908152602001600020600084815260200190815260200160002060030160009054906101000a900473ffffffffffffffffffffffffffffffffffffffff1690506000600560008660ff1660ff16815260200190815260200160002060008581526020019081526020016000206004015490506000600560008760ff1660ff16815260200190815260200160002060008681526020019081526020016000206005015490506000600560008860ff1660ff168152602001908152602001600020600087815260200190815260200160002060060154905060008473ffffffffffffffffffffffffffffffffffffffff1663313ce5676040518163ffffffff1660e01b815260040160206040518083038186803b1580156108f257600080fd5b505afa158015610906573d6000803e3d6000fd5b505050506040513d601f19601f8201168201806040525081019061092a9190614dce565b905060008860ff161415610abd5780600a6109459190614f2e565b8383866109529190614b7e565b61095c9190614f79565b6109669190615002565b600360003373ffffffffffffffffffffffffffffffffffffffff1673ffffffffffffffffffffffffffffffffffffffff16815260200190815260200160002060008773ffffffffffffffffffffffffffffffffffffffff1673ffffffffffffffffffffffffffffffffffffffff16815260200190815260200160002060008282546109f19190615033565b9250508190555080600a610a059190614f2e565b838386610a129190614b7e565b610a1c9190614f79565b610a269190615002565b600460003373ffffffffffffffffffffffffffffffffffffffff1673ffffffffffffffffffffffffffffffffffffffff16815260200190815260200160002060008773ffffffffffffffffffffffffffffffffffffffff1673ffffffffffffffffffffffffffffffffffffffff1681526020019081526020016000206000828254610ab19190614b7e565b92505081905550610bfa565b8184610ac99190614b7e565b600360003373ffffffffffffffffffffffffffffffffffffffff1673ffffffffffffffffffffffffffffffffffffffff16815260200190815260200160002060008773ffffffffffffffffffffffffffffffffffffffff1673ffffffffffffffffffffffffffffffffffffffff1681526020019081526020016000206000828254610b549190615033565b925050819055508184610b679190614b7e565b600460003373ffffffffffffffffffffffffffffffffffffffff1673ffffffffffffffffffffffffffffffffffffffff16815260200190815260200160002060008773ffffffffffffffffffffffffffffffffffffffff1673ffffffffffffffffffffffffffffffffffffffff1681526020019081526020016000206000828254610bf29190614b7e565b925050819055505b600560008960ff1660ff168152602001908152602001600020600088815260200190815260200160002060070154600560008a60ff1660ff1681526020019081526020016000206000888152602001908152602001600020600701819055506000600560008a60ff1660ff168152602001908152602001600020600089815260200190815260200160002060070181905550600660008960ff1660ff1681526020019081526020016000206000815480929190610cb690615089565b9190505550600960003373ffffffffffffffffffffffffffffffffffffffff1673ffffffffffffffffffffffffffffffffffffffff1681526020019081526020016000206040518060c001604052806040518060400160405280600b81526020017f43616e43656c4f7264657200000000000000000000000000000000000000000081525081526020018a60ff1681526020018681526020018581526020013373ffffffffffffffffffffffffffffffffffffffff1681526020014281525090806001815401808255809150506001900390600052602060002090600602016000909190919091506000820151816000019080519060200190610dba92919061405d565b5060208201518160010160006101000a81548160ff021916908360ff160217905550604082015181600201556060820151816003015560808201518160040160006101000a81548173ffffffffffffffffffffffffffffffffffffffff021916908373ffffffffffffffffffffffffffffffffffffffff16021790555060a0820151816005015550503373ffffffffffffffffffffffffffffffffffffffff167f57df0eb034fa40fbcc1b270268b5413748f12b0d1fad53076a0ae03b079ef573898686604051610e8d939291906150c2565b60405180910390a25050505050505050565b6000806000905060008060008760ff1614610eff57600160009054906101000a900473ffffffffffffffffffffffffffffffffffffffff16600260009054906101000a900473ffffffffffffffffffffffffffffffffffffffff16610f46565b600260009054906101000a900473ffffffffffffffffffffffffffffffffffffffff16600160009054906101000a900473ffffffffffffffffffffffffffffffffffffffff165b915091506000808860ff1614610f5d576000610f60565b60015b905086600360003373ffffffffffffffffffffffffffffffffffffffff1673ffffffffffffffffffffffffffffffffffffffff16815260200190815260200160002060008573ffffffffffffffffffffffffffffffffffffffff1673ffffffffffffffffffffffffffffffffffffffff168152602001908152602001600020541015611021576040517f08c379a00000000000000000000000000000000000000000000000000000000081526004016110189061516b565b60405180910390fd5b6000600660008360ff1660ff168152602001908152602001600020541161104e5786945050505050611b66565b60008373ffffffffffffffffffffffffffffffffffffffff1663313ce5676040518163ffffffff1660e01b815260040160206040518083038186803b15801561109657600080fd5b505afa1580156110aa573d6000803e3d6000fd5b505050506040513d601f19601f820116820180604052508101906110ce9190614dce565b90506000600560008460ff1660ff16815260200190815260200160002060007f0000000000000000000000000000000000000000000000000000000000000000815260200190815260200160002060070154905060005b600660008560ff1660ff168152602001908152602001600020548110801561114c57508987105b156117ee576000600560008660ff1660ff1681526020019081526020016000206000848152602001908152602001600020905060008a11156111bf5760018560ff1614156111ab5780600501548a10156111a657506117ee565b6111be565b80600501548a11156111bd57506117ee565b5b5b6000888c6111cd9190614b7e565b90506000826006015483600401546111e59190614b7e565b905060008060018960ff16141561137a578388600a6112049190614f2e565b8660050154856112149190614f79565b61121e9190615002565b111561122c57839150611256565b87600a6112399190614f2e565b8560050154846112499190614f79565b6112539190615002565b91505b600860405180608001604052808b60ff16815260200187600501548b600a61127e9190614f2e565b866112899190614f79565b6112939190615002565b81526020018760050154815260200142815250908060018154018082558091505060019003906000526020600020906004020160009091909190915060008201518160000160006101000a81548160ff021916908360ff16021790555060208201518160010155604082015181600201556060820151816003015550507fcf8e869c2baea59eda4b856f995e1c602b4b4450e40f966d3d1f3308dcb1b27d8986600501548a600a6113449190614f2e565b8561134f9190614f79565b6113599190615002565b876005015460405161136d939291906150c2565b60405180910390a1611462565b8383111561138a5783915061138e565b8291505b600860405180608001604052808b60ff1681526020018481526020018760050154815260200142815250908060018154018082558091505060019003906000526020600020906004020160009091909190915060008201518160000160006101000a81548160ff021916908360ff16021790555060208201518160010155604082015181600201556060820151816003015550507fcf8e869c2baea59eda4b856f995e1c602b4b4450e40f966d3d1f3308dcb1b27d89838760050154604051611459939291906150c2565b60405180910390a15b818c61146e9190615033565b9b5060018960ff1614156114eb57846005015488600a61148e9190614f2e565b836114999190614f79565b6114a39190615002565b8560060160008282546114b69190615033565b92505081905550846005015488600a6114cf9190614f2e565b836114da9190614f79565b6114e49190615002565b9050611530565b818560060160008282546114ff9190615033565b9250508190555087600a6115139190614f2e565b8560050154836115239190614f79565b61152d9190615002565b90505b81600360003373ffffffffffffffffffffffffffffffffffffffff1673ffffffffffffffffffffffffffffffffffffffff16815260200190815260200160002060008d73ffffffffffffffffffffffffffffffffffffffff1673ffffffffffffffffffffffffffffffffffffffff16815260200190815260200160002060008282546115bc9190614b7e565b9250508190555081600360008760010160009054906101000a900473ffffffffffffffffffffffffffffffffffffffff1673ffffffffffffffffffffffffffffffffffffffff1673ffffffffffffffffffffffffffffffffffffffff16815260200190815260200160002060008d73ffffffffffffffffffffffffffffffffffffffff1673ffffffffffffffffffffffffffffffffffffffff16815260200190815260200160002060008282546116739190615033565b9250508190555080600360003373ffffffffffffffffffffffffffffffffffffffff1673ffffffffffffffffffffffffffffffffffffffff16815260200190815260200160002060008c73ffffffffffffffffffffffffffffffffffffffff1673ffffffffffffffffffffffffffffffffffffffff16815260200190815260200160002060008282546117069190615033565b9250508190555080600460008760010160009054906101000a900473ffffffffffffffffffffffffffffffffffffffff1673ffffffffffffffffffffffffffffffffffffffff1673ffffffffffffffffffffffffffffffffffffffff16815260200190815260200160002060008c73ffffffffffffffffffffffffffffffffffffffff1673ffffffffffffffffffffffffffffffffffffffff16815260200190815260200160002060008282546117bd9190614b7e565b925050819055508460050154600a8190555084600701549650505050505080806117e69061518b565b915050611125565b505b6000600660008560ff1660ff1681526020019081526020016000205411801561190c5750600560008460ff1660ff1681526020019081526020016000206000600560008660ff1660ff16815260200190815260200160002060007f0000000000000000000000000000000000000000000000000000000000000000815260200190815260200160002060070154815260200190815260200160002060040154600560008560ff1660ff1681526020019081526020016000206000600560008760ff1660ff16815260200190815260200160002060007f0000000000000000000000000000000000000000000000000000000000000000815260200190815260200160002060070154815260200190815260200160002060060154145b1561196f5761196a83600560008660ff1660ff16815260200190815260200160002060007f00000000000000000000000000000000000000000000000000000000000000008152602001908152602001600020600701546000613d4d565b6117f0565b60008614611b5157600960003373ffffffffffffffffffffffffffffffffffffffff1673ffffffffffffffffffffffffffffffffffffffff1681526020019081526020016000206040518060c001604052806040518060400160405280600b81526020017f4d61726b65744f7264657200000000000000000000000000000000000000000081525081526020018560ff1681526020018b8152602001600081526020013373ffffffffffffffffffffffffffffffffffffffff1681526020014281525090806001815401808255809150506001900390600052602060002090600602016000909190919091506000820151816000019080519060200190611a7792919061405d565b5060208201518160010160006101000a81548160ff021916908360ff160217905550604082015181600201556060820151816003015560808201518160040160006101000a81548173ffffffffffffffffffffffffffffffffffffffff021916908373ffffffffffffffffffffffffffffffffffffffff16021790555060a0820151816005015550503373ffffffffffffffffffffffffffffffffffffffff167fb14914772df32197df268c65e15c6310f95aa8a49a093cbdce78190b14149dfb848b604051611b489291906151d4565b60405180910390a25b8589611b5d9190614b7e565b96505050505050505b9392505050565b80600160009054906101000a900473ffffffffffffffffffffffffffffffffffffffff1673ffffffffffffffffffffffffffffffffffffffff168173ffffffffffffffffffffffffffffffffffffffff161480611c175750600260009054906101000a900473ffffffffffffffffffffffffffffffffffffffff1673ffffffffffffffffffffffffffffffffffffffff168173ffffffffffffffffffffffffffffffffffffffff16145b611c56576040517f08c379a0000000000000000000000000000000000000000000000000000000008152600401611c4d90614a57565b60405180910390fd5b611c5e613c48565b60008311611ca1576040517f08c379a0000000000000000000000000000000000000000000000000000000008152600401611c9890615249565b60405180910390fd5b828273ffffffffffffffffffffffffffffffffffffffff166370a08231336040518263ffffffff1660e01b8152600401611cdb9190615269565b60206040518083038186803b158015611cf357600080fd5b505afa158015611d07573d6000803e3d6000fd5b505050506040513d601f19601f82011682018060405250810190611d2b9190615299565b1015611d6c576040517f08c379a0000000000000000000000000000000000000000000000000000000008152600401611d6390614b2f565b60405180910390fd5b82600360003373ffffffffffffffffffffffffffffffffffffffff1673ffffffffffffffffffffffffffffffffffffffff16815260200190815260200160002060008473ffffffffffffffffffffffffffffffffffffffff1673ffffffffffffffffffffffffffffffffffffffff1681526020019081526020016000206000828254611df89190615033565b925050819055508173ffffffffffffffffffffffffffffffffffffffff166323b872dd3330866040518463ffffffff1660e01b8152600401611e3c939291906152c6565b602060405180830381600087803b158015611e5657600080fd5b505af1158015611e6a573d6000803e3d6000fd5b505050506040513d601f19601f82011682018060405250810190611e8e9190614c22565b50611e97613c98565b505050565b60008211611edf576040517f08c379a0000000000000000000000000000000000000000000000000000000008152600401611ed690615349565b60405180910390fd5b60008311611f22576040517f08c379a0000000000000000000000000000000000000000000000000000000008152600401611f19906153b5565b60405180910390fd5b6000600560008660ff1660ff1681526020019081526020016000206000838152602001908152602001600020600701541415611f93576040517f08c379a0000000000000000000000000000000000000000000000000000000008152600401611f8a90615421565b60405180910390fd5b611fcc818386600560008960ff1660ff168152602001908152602001600020600086815260200190815260200160002060070154613ece565b61200b576040517f08c379a0000000000000000000000000000000000000000000000000000000008152600401612002906154b3565b60405180910390fd5b6000808560ff161461203f57600160009054906101000a900473ffffffffffffffffffffffffffffffffffffffff16612063565b600260009054906101000a900473ffffffffffffffffffffffffffffffffffffffff165b905060008173ffffffffffffffffffffffffffffffffffffffff1663313ce5676040518163ffffffff1660e01b815260040160206040518083038186803b1580156120ad57600080fd5b505afa1580156120c1573d6000803e3d6000fd5b505050506040513d601f19601f820116820180604052508101906120e59190614dce565b905060008660ff1614156123a65780600a6121009190614f2e565b848661210c9190614f79565b6121169190615002565b600360003373ffffffffffffffffffffffffffffffffffffffff1673ffffffffffffffffffffffffffffffffffffffff16815260200190815260200160002060008473ffffffffffffffffffffffffffffffffffffffff1673ffffffffffffffffffffffffffffffffffffffff1681526020019081526020016000205410156121d4576040517f08c379a00000000000000000000000000000000000000000000000000000000081526004016121cb9061551f565b60405180910390fd5b6122018682600a6121e59190614f2e565b86886121f19190614f79565b6121fb9190615002565b86610e9f565b94508381600a6122119190614f2e565b8661221c9190614f79565b6122269190615002565b945060008511612237575050612a16565b80600a6122449190614f2e565b84866122509190614f79565b61225a9190615002565b600360003373ffffffffffffffffffffffffffffffffffffffff1673ffffffffffffffffffffffffffffffffffffffff16815260200190815260200160002060008473ffffffffffffffffffffffffffffffffffffffff1673ffffffffffffffffffffffffffffffffffffffff16815260200190815260200160002060008282546122e59190614b7e565b9250508190555080600a6122f99190614f2e565b84866123059190614f79565b61230f9190615002565b600460003373ffffffffffffffffffffffffffffffffffffffff1673ffffffffffffffffffffffffffffffffffffffff16815260200190815260200160002060008473ffffffffffffffffffffffffffffffffffffffff1673ffffffffffffffffffffffffffffffffffffffff168152602001908152602001600020600082825461239a9190615033565b925050819055506125a8565b84600360003373ffffffffffffffffffffffffffffffffffffffff1673ffffffffffffffffffffffffffffffffffffffff16815260200190815260200160002060008473ffffffffffffffffffffffffffffffffffffffff1673ffffffffffffffffffffffffffffffffffffffff168152602001908152602001600020541015612465576040517f08c379a000000000000000000000000000000000000000000000000000000000815260040161245c906155b1565b60405180910390fd5b612470868686610e9f565b945060008511612481575050612a16565b84600360003373ffffffffffffffffffffffffffffffffffffffff1673ffffffffffffffffffffffffffffffffffffffff16815260200190815260200160002060008473ffffffffffffffffffffffffffffffffffffffff1673ffffffffffffffffffffffffffffffffffffffff168152602001908152602001600020600082825461250d9190614b7e565b9250508190555084600460003373ffffffffffffffffffffffffffffffffffffffff1673ffffffffffffffffffffffffffffffffffffffff16815260200190815260200160002060008473ffffffffffffffffffffffffffffffffffffffff1673ffffffffffffffffffffffffffffffffffffffff16815260200190815260200160002060008282546125a09190615033565b925050819055505b604051806101200160405280600760008960ff1660ff1681526020019081526020016000205481526020013373ffffffffffffffffffffffffffffffffffffffff1681526020018760ff1681526020014281526020018373ffffffffffffffffffffffffffffffffffffffff16815260200186815260200185815260200160008152602001600560008960ff1660ff168152602001908152602001600020600086815260200190815260200160002060070154815250600560008860ff1660ff1681526020019081526020016000206000600760008a60ff1660ff1681526020019081526020016000205481526020019081526020016000206000820151816000015560208201518160010160006101000a81548173ffffffffffffffffffffffffffffffffffffffff021916908373ffffffffffffffffffffffffffffffffffffffff16021790555060408201518160010160146101000a81548160ff021916908360ff1602179055506060820151816002015560808201518160030160006101000a81548173ffffffffffffffffffffffffffffffffffffffff021916908373ffffffffffffffffffffffffffffffffffffffff16021790555060a0820151816004015560c0820151816005015560e082015181600601556101008201518160070155905050600760008760ff1660ff16815260200190815260200160002054600560008860ff1660ff168152602001908152602001600020600085815260200190815260200160002060070181905550600660008760ff1660ff16815260200190815260200160002060008154809291906128059061518b565b9190505550600760008760ff1660ff16815260200190815260200160002060008154809291906128349061518b565b9190505550600960003373ffffffffffffffffffffffffffffffffffffffff1673ffffffffffffffffffffffffffffffffffffffff1681526020019081526020016000206040518060c001604052806040518060400160405280600a81526020017f4c696d69744f726465720000000000000000000000000000000000000000000081525081526020018860ff1681526020018781526020018681526020013373ffffffffffffffffffffffffffffffffffffffff168152602001428152509080600181540180825580915050600190039060005260206000209060060201600090919091909150600082015181600001908051906020019061293892919061405d565b5060208201518160010160006101000a81548160ff021916908360ff160217905550604082015181600201556060820151816003015560808201518160040160006101000a81548173ffffffffffffffffffffffffffffffffffffffff021916908373ffffffffffffffffffffffffffffffffffffffff16021790555060a0820151816005015550503373ffffffffffffffffffffffffffffffffffffffff167fad51c85f05231b58041fb4f1d4b23575e16b21c5483ac81d15d49f3fcb41878a878787604051612a0b939291906150c2565b60405180910390a250505b50505050565b60606000600660008460ff1660ff1681526020019081526020016000205467ffffffffffffffff811115612a5357612a526155d1565b5b604051908082528060200260200182016040528015612a8c57816020015b612a796140e3565b815260200190600190039081612a715790505b5090506000600560008560ff1660ff16815260200190815260200160002060007f0000000000000000000000000000000000000000000000000000000000000000815260200190815260200160002060070154905060005b600660008660ff1660ff16815260200190815260200160002054811015612c9f57600560008660ff1660ff168152602001908152602001600020600083815260200190815260200160002060405180610120016040529081600082015481526020016001820160009054906101000a900473ffffffffffffffffffffffffffffffffffffffff1673ffffffffffffffffffffffffffffffffffffffff1673ffffffffffffffffffffffffffffffffffffffff1681526020016001820160149054906101000a900460ff1660ff1660ff168152602001600282015481526020016003820160009054906101000a900473ffffffffffffffffffffffffffffffffffffffff1673ffffffffffffffffffffffffffffffffffffffff1673ffffffffffffffffffffffffffffffffffffffff168152602001600482015481526020016005820154815260200160068201548152602001600782015481525050838281518110612c5357612c52615600565b5b6020026020010181905250600560008660ff1660ff168152602001908152602001600020600083815260200190815260200160002060070154915080612c989061518b565b9050612ae4565b508192505050919050565b6060600960008373ffffffffffffffffffffffffffffffffffffffff1673ffffffffffffffffffffffffffffffffffffffff168152602001908152602001600020805480602002602001604051908101604052809291908181526020016000905b82821015612e6057838290600052602060002090600602016040518060c0016040529081600082018054612d3e9061565e565b80601f0160208091040260200160405190810160405280929190818152602001828054612d6a9061565e565b8015612db75780601f10612d8c57610100808354040283529160200191612db7565b820191906000526020600020905b815481529060010190602001808311612d9a57829003601f168201915b505050505081526020016001820160009054906101000a900460ff1660ff1660ff16815260200160028201548152602001600382015481526020016004820160009054906101000a900473ffffffffffffffffffffffffffffffffffffffff1673ffffffffffffffffffffffffffffffffffffffff1673ffffffffffffffffffffffffffffffffffffffff16815260200160058201548152505081526020019060010190612d0b565b505050509050919050565b600a5481565b6000808311612eb5576040517f08c379a0000000000000000000000000000000000000000000000000000000008152600401612eac90615349565b60405180910390fd5b60007f000000000000000000000000000000000000000000000000000000000000000090505b600115612f5e57612f1b818585600560008860ff1660ff168152602001908152602001600020600086815260200190815260200160002060070154613ece565b15612f295780915050612f99565b600560008460ff1660ff1681526020019081526020016000206000828152602001908152602001600020600701549050612edb565b6040517f08c379a0000000000000000000000000000000000000000000000000000000008152600401612f90906156dc565b60405180910390fd5b92915050565b6000807f000000000000000000000000000000000000000000000000000000000000000090505b7f0000000000000000000000000000000000000000000000000000000000000000600560008660ff1660ff1681526020019081526020016000206000838152602001908152602001600020600701541461306857613025848483613ca2565b1561303357809150506130a3565b600560008560ff1660ff1681526020019081526020016000206000828152602001908152602001600020600701549050612fc6565b6040517f08c379a000000000000000000000000000000000000000000000000000000000815260040161309a90615748565b60405180910390fd5b92915050565b60606008805480602002602001604051908101604052809291908181526020016000905b8282101561313a57838290600052602060002090600402016040518060800160405290816000820160009054906101000a900460ff1660ff1660ff1681526020016001820154815260200160028201548152602001600382015481525050815260200190600101906130cd565b50505050905090565b6003602052816000526040600020602052806000526040600020600091509150505481565b6000600560008860ff1660ff16815260200190815260200160002060008781526020019081526020016000206007015414156131d9576040517f08c379a00000000000000000000000000000000000000000000000000000000081526004016131d0906157b4565b60405180910390fd5b6000600560008860ff1660ff168152602001908152602001600020600083815260200190815260200160002060070154141561324a576040517f08c379a0000000000000000000000000000000000000000000000000000000008152600401613241906157b4565b60405180910390fd5b6000600560008860ff1660ff16815260200190815260200160002060008481526020019081526020016000206007015414156132bb576040517f08c379a00000000000000000000000000000000000000000000000000000000081526004016132b2906157b4565b60405180910390fd5b818114806132c857508185145b15613a4e576132d8868683613ca2565b6132e157600080fd5b61331a828588600560008b60ff1660ff16815260200190815260200160002060008a815260200190815260200160002060070154613ece565b61332357600080fd5b6000600560008860ff1660ff168152602001908152602001600020600087815260200190815260200160002060030160009054906101000a900473ffffffffffffffffffffffffffffffffffffffff1690506000600560008960ff1660ff16815260200190815260200160002060008881526020019081526020016000206004015490506000600560008a60ff1660ff168152602001908152602001600020600089815260200190815260200160002060050154905060008373ffffffffffffffffffffffffffffffffffffffff1663313ce5676040518163ffffffff1660e01b815260040160206040518083038186803b15801561342157600080fd5b505afa158015613435573d6000803e3d6000fd5b505050506040513d601f19601f820116820180604052508101906134599190614dce565b905087600560008c60ff1660ff16815260200190815260200160002060008b81526020019081526020016000206005018190555086600560008c60ff1660ff16815260200190815260200160002060008b81526020019081526020016000206004018190555060008a60ff1614156137c257600082846134d99190614f79565b888a6134e59190614f79565b119050801561365757600082600a6134fd9190614f2e565b84866135099190614f79565b8a8c6135159190614f79565b61351f9190614b7e565b6135299190615002565b905080600360003373ffffffffffffffffffffffffffffffffffffffff1673ffffffffffffffffffffffffffffffffffffffff16815260200190815260200160002060008873ffffffffffffffffffffffffffffffffffffffff1673ffffffffffffffffffffffffffffffffffffffff16815260200190815260200160002060008282546135b79190614b7e565b9250508190555080600460003373ffffffffffffffffffffffffffffffffffffffff1673ffffffffffffffffffffffffffffffffffffffff16815260200190815260200160002060008873ffffffffffffffffffffffffffffffffffffffff1673ffffffffffffffffffffffffffffffffffffffff168152602001908152602001600020600082825461364a9190615033565b92505081905550506137bc565b600082600a6136669190614f2e565b898b6136729190614f79565b858761367e9190614f79565b6136889190614b7e565b6136929190615002565b905080600360003373ffffffffffffffffffffffffffffffffffffffff1673ffffffffffffffffffffffffffffffffffffffff16815260200190815260200160002060008873ffffffffffffffffffffffffffffffffffffffff1673ffffffffffffffffffffffffffffffffffffffff16815260200190815260200160002060008282546137209190615033565b9250508190555080600460003373ffffffffffffffffffffffffffffffffffffffff1673ffffffffffffffffffffffffffffffffffffffff16815260200190815260200160002060008873ffffffffffffffffffffffffffffffffffffffff1673ffffffffffffffffffffffffffffffffffffffff16815260200190815260200160002060008282546137b39190614b7e565b92505081905550505b50613a45565b60008388119050801561390b57600084896137dd9190614b7e565b905080600360003373ffffffffffffffffffffffffffffffffffffffff1673ffffffffffffffffffffffffffffffffffffffff16815260200190815260200160002060008873ffffffffffffffffffffffffffffffffffffffff1673ffffffffffffffffffffffffffffffffffffffff168152602001908152602001600020600082825461386b9190614b7e565b9250508190555080600460003373ffffffffffffffffffffffffffffffffffffffff1673ffffffffffffffffffffffffffffffffffffffff16815260200190815260200160002060008873ffffffffffffffffffffffffffffffffffffffff1673ffffffffffffffffffffffffffffffffffffffff16815260200190815260200160002060008282546138fe9190615033565b9250508190555050613a43565b600088856139199190614b7e565b905080600360003373ffffffffffffffffffffffffffffffffffffffff1673ffffffffffffffffffffffffffffffffffffffff16815260200190815260200160002060008873ffffffffffffffffffffffffffffffffffffffff1673ffffffffffffffffffffffffffffffffffffffff16815260200190815260200160002060008282546139a79190615033565b9250508190555080600460003373ffffffffffffffffffffffffffffffffffffffff1673ffffffffffffffffffffffffffffffffffffffff16815260200190815260200160002060008873ffffffffffffffffffffffffffffffffffffffff1673ffffffffffffffffffffffffffffffffffffffff1681526020019081526020016000206000828254613a3a9190614b7e565b92505081905550505b505b50505050613a66565b613a5986868361064c565b613a6586848685611e9c565b5b600960003373ffffffffffffffffffffffffffffffffffffffff1673ffffffffffffffffffffffffffffffffffffffff1681526020019081526020016000206040518060c001604052806040518060400160405280600b81526020017f5570646174654f7264657200000000000000000000000000000000000000000081525081526020018860ff1681526020018581526020018681526020013373ffffffffffffffffffffffffffffffffffffffff1681526020014281525090806001815401808255809150506001900390600052602060002090600602016000909190919091506000820151816000019080519060200190613b6592919061405d565b5060208201518160010160006101000a81548160ff021916908360ff160217905550604082015181600201556060820151816003015560808201518160040160006101000a81548173ffffffffffffffffffffffffffffffffffffffff021916908373ffffffffffffffffffffffffffffffffffffffff16021790555060a0820151816005015550503373ffffffffffffffffffffffffffffffffffffffff167f97a73ac5a51f79b1439728c534b4c03778af1d69889113bd1194d31cbde4e5ed878686604051613c38939291906150c2565b60405180910390a2505050505050565b60026000541415613c8e576040517f08c379a0000000000000000000000000000000000000000000000000000000008152600401613c8590615820565b60405180910390fd5b6002600081905550565b6001600081905550565b600080600560008660ff1660ff1681526020019081526020016000206000848152602001908152602001600020600701541415613d14576040517f08c379a0000000000000000000000000000000000000000000000000000000008152600401613d0b9061588c565b60405180910390fd5b82600560008660ff1660ff1681526020019081526020016000206000848152602001908152602001600020600701541490509392505050565b6000600560008560ff1660ff1681526020019081526020016000206000848152602001908152602001600020600701541415613dbe576040517f08c379a0000000000000000000000000000000000000000000000000000000008152600401613db59061591e565b60405180910390fd5b613dc9838383613ca2565b613e08576040517f08c379a0000000000000000000000000000000000000000000000000000000008152600401613dff906159b0565b60405180910390fd5b600560008460ff1660ff168152602001908152602001600020600083815260200190815260200160002060070154600560008560ff1660ff1681526020019081526020016000206000838152602001908152602001600020600701819055506000600560008560ff1660ff168152602001908152602001600020600084815260200190815260200160002060070181905550600660008460ff1660ff1681526020019081526020016000206000815480929190613ec490615089565b9190505550505050565b6000808360ff161415613f99577f0000000000000000000000000000000000000000000000000000000000000000851480613f33575083600560008060ff16815260200190815260200160002060008781526020019081526020016000206005015410155b8015613f9257507f0000000000000000000000000000000000000000000000000000000000000000821480613f915750600560008060ff16815260200190815260200160002060008381526020019081526020016000206005015484115b5b9050614055565b7f0000000000000000000000000000000000000000000000000000000000000000851480613ff257508360056000600160ff16815260200190815260200160002060008781526020019081526020016000206005015411155b801561405257507f0000000000000000000000000000000000000000000000000000000000000000821480614051575060056000600160ff16815260200190815260200160002060008381526020019081526020016000206005015484105b5b90505b949350505050565b8280546140699061565e565b90600052602060002090601f01602090048101928261408b57600085556140d2565b82601f106140a457805160ff19168380011785556140d2565b828001600101855582156140d2579182015b828111156140d15782518255916020019190600101906140b6565b5b5090506140df919061415e565b5090565b60405180610120016040528060008152602001600073ffffffffffffffffffffffffffffffffffffffff168152602001600060ff16815260200160008152602001600073ffffffffffffffffffffffffffffffffffffffff168152602001600081526020016000815260200160008152602001600081525090565b5b8082111561417757600081600090555060010161415f565b5090565b600080fd5b6000819050919050565b61419381614180565b811461419e57600080fd5b50565b6000813590506141b08161418a565b92915050565b600073ffffffffffffffffffffffffffffffffffffffff82169050919050565b60006141e1826141b6565b9050919050565b6141f1816141d6565b81146141fc57600080fd5b50565b60008135905061420e816141e8565b92915050565b6000806040838503121561422b5761422a61417b565b5b6000614239858286016141a1565b925050602061424a858286016141ff565b9150509250929050565b6000806040838503121561426b5761426a61417b565b5b6000614279858286016141ff565b925050602061428a858286016141ff565b9150509250929050565b61429d81614180565b82525050565b60006020820190506142b86000830184614294565b92915050565b600060ff82169050919050565b6142d4816142be565b81146142df57600080fd5b50565b6000813590506142f1816142cb565b92915050565b6000806000606084860312156143105761430f61417b565b5b600061431e868287016142e2565b935050602061432f868287016141a1565b9250506040614340868287016141a1565b9150509250925092565b600080600080608085870312156143645761436361417b565b5b6000614372878288016142e2565b9450506020614383878288016141a1565b9350506040614394878288016141a1565b92505060606143a5878288016141a1565b91505092959194509250565b6000602082840312156143c7576143c661417b565b5b60006143d5848285016142e2565b91505092915050565b600081519050919050565b600082825260208201905092915050565b6000819050602082019050919050565b61441381614180565b82525050565b614422816141d6565b82525050565b614431816142be565b82525050565b6101208201600082015161444e600085018261440a565b5060208201516144616020850182614419565b5060408201516144746040850182614428565b506060820151614487606085018261440a565b50608082015161449a6080850182614419565b5060a08201516144ad60a085018261440a565b5060c08201516144c060c085018261440a565b5060e08201516144d360e085018261440a565b506101008201516144e861010085018261440a565b50505050565b60006144fa8383614437565b6101208301905092915050565b6000602082019050919050565b600061451f826143de565b61452981856143e9565b9350614534836143fa565b8060005b8381101561456557815161454c88826144ee565b975061455783614507565b925050600181019050614538565b5085935050505092915050565b6000602082019050818103600083015261458c8184614514565b905092915050565b6000602082840312156145aa576145a961417b565b5b60006145b8848285016141ff565b91505092915050565b600081519050919050565b600082825260208201905092915050565b6000819050602082019050919050565b600081519050919050565b600082825260208201905092915050565b60005b8381101561462757808201518184015260208101905061460c565b83811115614636576000848401525b50505050565b6000601f19601f8301169050919050565b6000614658826145ed565b61466281856145f8565b9350614672818560208601614609565b61467b8161463c565b840191505092915050565b600060c08301600083015184820360008601526146a3828261464d565b91505060208301516146b86020860182614428565b5060408301516146cb604086018261440a565b5060608301516146de606086018261440a565b5060808301516146f16080860182614419565b5060a083015161470460a086018261440a565b508091505092915050565b600061471b8383614686565b905092915050565b6000602082019050919050565b600061473b826145c1565b61474581856145cc565b935083602082028501614757856145dd565b8060005b858110156147935784840389528151614774858261470f565b945061477f83614723565b925060208a0199505060018101905061475b565b50829750879550505050505092915050565b600060208201905081810360008301526147bf8184614730565b905092915050565b600080604083850312156147de576147dd61417b565b5b60006147ec858286016141a1565b92505060206147fd858286016142e2565b9150509250929050565b6000806040838503121561481e5761481d61417b565b5b600061482c858286016142e2565b925050602061483d858286016141a1565b9150509250929050565b600081519050919050565b600082825260208201905092915050565b6000819050602082019050919050565b6080820160008201516148896000850182614428565b50602082015161489c602085018261440a565b5060408201516148af604085018261440a565b5060608201516148c2606085018261440a565b50505050565b60006148d48383614873565b60808301905092915050565b6000602082019050919050565b60006148f882614847565b6149028185614852565b935061490d83614863565b8060005b8381101561493e57815161492588826148c8565b9750614930836148e0565b925050600181019050614911565b5085935050505092915050565b6000602082019050818103600083015261496581846148ed565b905092915050565b60008060008060008060c0878903121561498a5761498961417b565b5b600061499889828a016142e2565b96505060206149a989828a016141a1565b95505060406149ba89828a016141a1565b94505060606149cb89828a016141a1565b93505060806149dc89828a016141a1565b92505060a06149ed89828a016141a1565b9150509295509295509295565b600082825260208201905092915050565b7f696e76616c696420746f6b656e00000000000000000000000000000000000000600082015250565b6000614a41600d836149fa565b9150614a4c82614a0b565b602082019050919050565b60006020820190508181036000830152614a7081614a34565b9050919050565b7f63616e2774207769746864726177203000000000000000000000000000000000600082015250565b6000614aad6010836149fa565b9150614ab882614a77565b602082019050919050565b60006020820190508181036000830152614adc81614aa0565b9050919050565b7f62616c616e6365206e6f742073756666696369656e7400000000000000000000600082015250565b6000614b196016836149fa565b9150614b2482614ae3565b602082019050919050565b60006020820190508181036000830152614b4881614b0c565b9050919050565b7f4e487b7100000000000000000000000000000000000000000000000000000000600052601160045260246000fd5b6000614b8982614180565b9150614b9483614180565b925082821015614ba757614ba6614b4f565b5b828203905092915050565b614bbb816141d6565b82525050565b6000604082019050614bd66000830185614bb2565b614be36020830184614294565b9392505050565b60008115159050919050565b614bff81614bea565b8114614c0a57600080fd5b50565b600081519050614c1c81614bf6565b92915050565b600060208284031215614c3857614c3761417b565b5b6000614c4684828501614c0d565b91505092915050565b7f796f7520617265206e6f74206f776e6572206f66207468697320706f7369746960008201527f6f6e206f72646572000000000000000000000000000000000000000000000000602082015250565b6000614cab6028836149fa565b9150614cb682614c4f565b604082019050919050565b60006020820190508181036000830152614cda81614c9e565b9050919050565b7f72656d6f76654f7264657220696e646578206e6f742065786973740000000000600082015250565b6000614d17601b836149fa565b9150614d2282614ce1565b602082019050919050565b60006020820190508181036000830152614d4681614d0a565b9050919050565b7f696e646578206973206e6f742070726576496e64657800000000000000000000600082015250565b6000614d836016836149fa565b9150614d8e82614d4d565b602082019050919050565b60006020820190508181036000830152614db281614d76565b9050919050565b600081519050614dc8816142cb565b92915050565b600060208284031215614de457614de361417b565b5b6000614df284828501614db9565b91505092915050565b60008160011c9050919050565b6000808291508390505b6001851115614e5257808604811115614e2e57614e2d614b4f565b5b6001851615614e3d5780820291505b8081029050614e4b85614dfb565b9450614e12565b94509492505050565b600082614e6b5760019050614f27565b81614e795760009050614f27565b8160018114614e8f5760028114614e9957614ec8565b6001915050614f27565b60ff841115614eab57614eaa614b4f565b5b8360020a915084821115614ec257614ec1614b4f565b5b50614f27565b5060208310610133831016604e8410600b8410161715614efd5782820a905083811115614ef857614ef7614b4f565b5b614f27565b614f0a8484846001614e08565b92509050818404811115614f2157614f20614b4f565b5b81810290505b9392505050565b6000614f3982614180565b9150614f44836142be565b9250614f717fffffffffffffffffffffffffffffffffffffffffffffffffffffffffffffffff8484614e5b565b905092915050565b6000614f8482614180565b9150614f8f83614180565b9250817fffffffffffffffffffffffffffffffffffffffffffffffffffffffffffffffff0483118215151615614fc857614fc7614b4f565b5b828202905092915050565b7f4e487b7100000000000000000000000000000000000000000000000000000000600052601260045260246000fd5b600061500d82614180565b915061501883614180565b92508261502857615027614fd3565b5b828204905092915050565b600061503e82614180565b915061504983614180565b9250827fffffffffffffffffffffffffffffffffffffffffffffffffffffffffffffffff0382111561507e5761507d614b4f565b5b828201905092915050565b600061509482614180565b915060008214156150a8576150a7614b4f565b5b600182039050919050565b6150bc816142be565b82525050565b60006060820190506150d760008301866150b3565b6150e46020830185614294565b6150f16040830184614294565b949350505050565b7f6e6f7420656e6f7567682062616c616e636520746f6b656e20666f72204d617260008201527f6b65744f72646572000000000000000000000000000000000000000000000000602082015250565b60006151556028836149fa565b9150615160826150f9565b604082019050919050565b6000602082019050818103600083015261518481615148565b9050919050565b600061519682614180565b91507fffffffffffffffffffffffffffffffffffffffffffffffffffffffffffffffff8214156151c9576151c8614b4f565b5b600182019050919050565b60006040820190506151e960008301856150b3565b6151f66020830184614294565b9392505050565b7f63616e2774206465706f73697420300000000000000000000000000000000000600082015250565b6000615233600f836149fa565b915061523e826151fd565b602082019050919050565b6000602082019050818103600083015261526281615226565b9050919050565b600060208201905061527e6000830184614bb2565b92915050565b6000815190506152938161418a565b92915050565b6000602082840312156152af576152ae61417b565b5b60006152bd84828501615284565b91505092915050565b60006060820190506152db6000830186614bb2565b6152e86020830185614bb2565b6152f56040830184614294565b949350505050565b7f7072696365206d757374203e2030000000000000000000000000000000000000600082015250565b6000615333600e836149fa565b915061533e826152fd565b602082019050919050565b6000602082019050818103600083015261536281615326565b9050919050565b7f616d6f756e74206d757374203e20300000000000000000000000000000000000600082015250565b600061539f600f836149fa565b91506153aa82615369565b602082019050919050565b600060208201905081810360008301526153ce81615392565b9050919050565b7f707265764e6f6465494420696e646578206e6f74206578697374200000000000600082015250565b600061540b601b836149fa565b9150615416826153d5565b602082019050919050565b6000602082019050818103600083015261543a816153fe565b9050919050565b7f706f736974696f6e20696e206c696e6b6564206c697374206e6f74206f72646560008201527f7200000000000000000000000000000000000000000000000000000000000000602082015250565b600061549d6021836149fa565b91506154a882615441565b604082019050919050565b600060208201905081810360008301526154cc81615490565b9050919050565b7f6e6f7420656e6f7567682062616c616e636520746f6b656e20666f7220627579600082015250565b60006155096020836149fa565b9150615514826154d3565b602082019050919050565b60006020820190508181036000830152615538816154fc565b9050919050565b7f6e6f7420656e6f7567682062616c616e636520746f6b656e20666f722073656c60008201527f6c00000000000000000000000000000000000000000000000000000000000000602082015250565b600061559b6021836149fa565b91506155a68261553f565b604082019050919050565b600060208201905081810360008301526155ca8161558e565b9050919050565b7f4e487b7100000000000000000000000000000000000000000000000000000000600052604160045260246000fd5b7f4e487b7100000000000000000000000000000000000000000000000000000000600052603260045260246000fd5b7f4e487b7100000000000000000000000000000000000000000000000000000000600052602260045260246000fd5b6000600282049050600182168061567657607f821691505b6020821081141561568a5761568961562f565b5b50919050565b7f5f66696e64496e64657820726576657274000000000000000000000000000000600082015250565b60006156c66011836149fa565b91506156d182615690565b602082019050919050565b600060208201905081810360008301526156f5816156b9565b9050919050565b7f5f66696e64507265764f72646572206e6f742065786973740000000000000000600082015250565b60006157326018836149fa565b915061573d826156fc565b602082019050919050565b6000602082019050818103600083015261576181615725565b9050919050565b7f7570646174654f7264657220696e646578206e6f742065786973740000000000600082015250565b600061579e601b836149fa565b91506157a982615768565b602082019050919050565b600060208201905081810360008301526157cd81615791565b9050919050565b7f5265656e7472616e637947756172643a207265656e7472616e742063616c6c00600082015250565b600061580a601f836149fa565b9150615815826157d4565b602082019050919050565b60006020820190508181036000830152615839816157fd565b9050919050565b7f707265764e6f64654944206e6f74206578697374000000000000000000000000600082015250565b60006158766014836149fa565b915061588182615840565b602082019050919050565b600060208201905081810360008301526158a581615869565b9050919050565b7f72656d6f76654f726465724e6f55706461746542616c616e63657320696e646560008201527f78206e6f74206578697374000000000000000000000000000000000000000000602082015250565b6000615908602b836149fa565b9150615913826158ac565b604082019050919050565b60006020820190508181036000830152615937816158fb565b9050919050565b7f72656d6f76654f726465724e6f55706461746542616c616e63657320696e646560008201527f78206973206e6f742070726576496e6465780000000000000000000000000000602082015250565b600061599a6032836149fa565b91506159a58261593e565b604082019050919050565b600060208201905081810360008301526159c98161598d565b905091905056fea264697066735822122051cda17be5d3261395779ea50690967b591c5e80a5d70facb7ff781a2a6dc4b864736f6c63430008090033",
  "linkReferences": {},
  "deployedLinkReferences": {}
}