{
  "_format": "hh-sol-artifact-1",
  "contractName": "FactoryPair",
  "sourceName": "contracts/FactoryPair.sol",
  "abi": [
    {
      "anonymous": false,
      "inputs": [
        {
          "indexed": true,
          "internalType": "address",
          "name": "token0",
          "type": "address"
        },
        {
          "indexed": true,
          "internalType": "address",
          "name": "token1",
          "type": "address"
        },
        {
          "indexed": false,
          "internalType": "address",
          "name": "pair",
          "type": "address"
        },
        {
          "indexed": false,
          "internalType": "uint256",
          "name": "",
          "type": "uint256"
        }
      ],
      "name": "PairCreated",
      "type": "event"
    },
    {
      "inputs": [
        {
          "internalType": "uint256",
          "name": "",
          "type": "uint256"
        }
      ],
      "name": "allPairs",
      "outputs": [
        {
          "internalType": "address",
          "name": "",
          "type": "address"
        }
      ],
      "stateMutability": "view",
      "type": "function"
    },
    {
      "inputs": [],
      "name": "allPairsLength",
      "outputs": [
        {
          "internalType": "uint256",
          "name": "",
          "type": "uint256"
        }
      ],
      "stateMutability": "view",
      "type": "function"
    },
    {
      "inputs": [
        {
          "internalType": "address",
          "name": "token0",
          "type": "address"
        },
        {
          "internalType": "address",
          "name": "token1",
          "type": "address"
        }
      ],
      "name": "createPair",
      "outputs": [
        {
          "internalType": "address",
          "name": "pair",
          "type": "address"
        }
      ],
      "stateMutability": "nonpayable",
      "type": "function"
    },
    {
      "inputs": [
        {
          "internalType": "address",
          "name": "",
          "type": "address"
        },
        {
          "internalType": "address",
          "name": "",
          "type": "address"
        }
      ],
      "name": "getPair",
      "outputs": [
        {
          "internalType": "address",
          "name": "",
          "type": "address"
        }
      ],
      "stateMutability": "view",
      "type": "function"
    }
  ],
  "bytecode": "0x608060405234801561001057600080fd5b50615fb4806100206000396000f3fe60806040523480156200001157600080fd5b5060043610620000525760003560e01c80631e3dd18b1462000057578063574f2ba3146200008d578063c9c6539614620000af578063e6a4390514620000e5575b600080fd5b6200007560048036038101906200006f9190620006af565b6200011b565b60405162000084919062000726565b60405180910390f35b620000976200015b565b604051620000a6919062000754565b60405180910390f35b620000cd6004803603810190620000c79190620007a2565b62000168565b604051620000dc919062000726565b60405180910390f35b620001036004803603810190620000fd9190620007a2565b6200061f565b60405162000112919062000726565b60405180910390f35b600181815481106200012c57600080fd5b906000526020600020016000915054906101000a900473ffffffffffffffffffffffffffffffffffffffff1681565b6000600180549050905090565b60008173ffffffffffffffffffffffffffffffffffffffff168373ffffffffffffffffffffffffffffffffffffffff161415620001dc576040517f08c379a0000000000000000000000000000000000000000000000000000000008152600401620001d3906200084a565b60405180910390fd5b600073ffffffffffffffffffffffffffffffffffffffff168373ffffffffffffffffffffffffffffffffffffffff1614156200024f576040517f08c379a00000000000000000000000000000000000000000000000000000000081526004016200024690620008bc565b60405180910390fd5b600073ffffffffffffffffffffffffffffffffffffffff166000808573ffffffffffffffffffffffffffffffffffffffff1673ffffffffffffffffffffffffffffffffffffffff16815260200190815260200160002060008473ffffffffffffffffffffffffffffffffffffffff1673ffffffffffffffffffffffffffffffffffffffff16815260200190815260200160002060009054906101000a900473ffffffffffffffffffffffffffffffffffffffff1673ffffffffffffffffffffffffffffffffffffffff16146200035c576040517f08c379a000000000000000000000000000000000000000000000000000000000815260040162000353906200092e565b60405180910390fd5b6000838360405160200162000373929190620009a0565b60405160208183030381529060405280519060200120905060008185856040516200039e9062000661565b620003ab929190620009d0565b8190604051809103906000f5905080158015620003cc573d6000803e3d6000fd5b509050806000808773ffffffffffffffffffffffffffffffffffffffff1673ffffffffffffffffffffffffffffffffffffffff16815260200190815260200160002060008673ffffffffffffffffffffffffffffffffffffffff1673ffffffffffffffffffffffffffffffffffffffff16815260200190815260200160002060006101000a81548173ffffffffffffffffffffffffffffffffffffffff021916908373ffffffffffffffffffffffffffffffffffffffff160217905550806000808673ffffffffffffffffffffffffffffffffffffffff1673ffffffffffffffffffffffffffffffffffffffff16815260200190815260200160002060008773ffffffffffffffffffffffffffffffffffffffff1673ffffffffffffffffffffffffffffffffffffffff16815260200190815260200160002060006101000a81548173ffffffffffffffffffffffffffffffffffffffff021916908373ffffffffffffffffffffffffffffffffffffffff1602179055506001819080600181540180825580915050600190039060005260206000200160009091909190916101000a81548173ffffffffffffffffffffffffffffffffffffffff021916908373ffffffffffffffffffffffffffffffffffffffff1602179055508373ffffffffffffffffffffffffffffffffffffffff168573ffffffffffffffffffffffffffffffffffffffff167f0d3648bd0f6ba80134a33ba9275ac585d9d315f0ad8355cddefde31afa28d0e9836001805490506040516200060c929190620009fd565b60405180910390a3809250505092915050565b60006020528160005260406000206020528060005260406000206000915091509054906101000a900473ffffffffffffffffffffffffffffffffffffffff1681565b6155548062000a2b83390190565b600080fd5b6000819050919050565b620006898162000674565b81146200069557600080fd5b50565b600081359050620006a9816200067e565b92915050565b600060208284031215620006c857620006c76200066f565b5b6000620006d88482850162000698565b91505092915050565b600073ffffffffffffffffffffffffffffffffffffffff82169050919050565b60006200070e82620006e1565b9050919050565b620007208162000701565b82525050565b60006020820190506200073d600083018462000715565b92915050565b6200074e8162000674565b82525050565b60006020820190506200076b600083018462000743565b92915050565b6200077c8162000701565b81146200078857600080fd5b50565b6000813590506200079c8162000771565b92915050565b60008060408385031215620007bc57620007bb6200066f565b5b6000620007cc858286016200078b565b9250506020620007df858286016200078b565b9150509250929050565b600082825260208201905092915050565b7f4944454e544943414c5f41444452455353455300000000000000000000000000600082015250565b600062000832601383620007e9565b91506200083f82620007fa565b602082019050919050565b60006020820190508181036000830152620008658162000823565b9050919050565b7f5a45524f5f414444524553530000000000000000000000000000000000000000600082015250565b6000620008a4600c83620007e9565b9150620008b1826200086c565b602082019050919050565b60006020820190508181036000830152620008d78162000895565b9050919050565b7f504149525f455849535453000000000000000000000000000000000000000000600082015250565b600062000916600b83620007e9565b91506200092382620008de565b602082019050919050565b60006020820190508181036000830152620009498162000907565b9050919050565b60008160601b9050919050565b60006200096a8262000950565b9050919050565b60006200097e826200095d565b9050919050565b6200099a620009948262000701565b62000971565b82525050565b6000620009ae828562000985565b601482019150620009c0828462000985565b6014820191508190509392505050565b6000604082019050620009e7600083018562000715565b620009f6602083018462000715565b9392505050565b600060408201905062000a14600083018562000715565b62000a23602083018462000743565b939250505056fe60c060405260006080908152507fffffffffffffffffffffffffffffffffffffffffffffffffffffffffffffffff60a0908152503480156200004057600080fd5b50604051620055543803806200555483398181016040528101906200006691906200023e565b8181600160008190555081600160006101000a81548173ffffffffffffffffffffffffffffffffffffffff021916908373ffffffffffffffffffffffffffffffffffffffff16021790555080600260006101000a81548173ffffffffffffffffffffffffffffffffffffffff021916908373ffffffffffffffffffffffffffffffffffffffff16021790555050506001600760008060ff16815260200190815260200160002081905550600160076000600160ff168152602001908152602001600020819055507fffffffffffffffffffffffffffffffffffffffffffffffffffffffffffffffff600560008060ff1681526020019081526020016000206000808152602001908152602001600020600701819055507fffffffffffffffffffffffffffffffffffffffffffffffffffffffffffffffff60056000600160ff168152602001908152602001600020600080815260200190815260200160002060070181905550505062000285565b600080fd5b600073ffffffffffffffffffffffffffffffffffffffff82169050919050565b60006200020682620001d9565b9050919050565b6200021881620001f9565b81146200022457600080fd5b50565b60008151905062000238816200020d565b92915050565b60008060408385031215620002585762000257620001d4565b5b6000620002688582860162000227565b92505060206200027b8582860162000227565b9150509250929050565b60805160a051615263620002f160003960008181612b7701528181613b720152613c31015260008181610f5b015281816116b8015281816117330152818161179e0152818161269601528181612a6801528181612b5301528181613b130152613bd101526152636000f3fe608060405234801561001057600080fd5b50600436106100ff5760003560e01c80638d778fc611610097578063bbfebe0211610066578063bbfebe02146102d0578063d063db8d146102ee578063d21220a71461031e578063f14239ff1461033c576100ff565b80638d778fc614610222578063a035b1fe14610252578063a435341014610270578063ad558095146102a0576100ff565b8063671963ef116100d3578063671963ef1461018a5780636e553f65146101ba578063732f51f9146101d65780637b00e059146101f2576100ff565b8062f714ce146101045780630dfe16811461012057806312a2e5df1461013e57806318a6bf5f1461016e575b600080fd5b61011e60048036038101906101199190613e8f565b610358565b005b610128610679565b6040516101359190613ede565b60405180910390f35b61015860048036038101906101539190613ef9565b61069f565b6040516101659190613f48565b60405180910390f35b61018860048036038101906101839190613f9c565b6106c4565b005b6101a4600480360381019061019f9190613f9c565b610dc0565b6040516101b19190613f48565b60405180910390f35b6101d460048036038101906101cf9190613e8f565b6119d9565b005b6101f060048036038101906101eb9190613fef565b611d08565b005b61020c60048036038101906102079190614056565b612604565b6040516102199190614217565b60405180910390f35b61023c60048036038101906102379190614239565b612892565b604051610249919061444a565b60405180910390f35b61025a612a53565b6040516102679190613f48565b60405180910390f35b61028a6004803603810190610285919061446c565b612a59565b6040516102979190613f48565b60405180910390f35b6102ba60048036038101906102b591906144ac565b612b4e565b6040516102c79190613f48565b60405180910390f35b6102d8612c58565b6040516102e591906145f0565b60405180910390f35b61030860048036038101906103039190613ef9565b612cf2565b6040516103159190613f48565b60405180910390f35b610326612d17565b6040516103339190613ede565b60405180910390f35b61035660048036038101906103519190614612565b612d3d565b005b80600160009054906101000a900473ffffffffffffffffffffffffffffffffffffffff1673ffffffffffffffffffffffffffffffffffffffff168173ffffffffffffffffffffffffffffffffffffffff1614806104025750600260009054906101000a900473ffffffffffffffffffffffffffffffffffffffff1673ffffffffffffffffffffffffffffffffffffffff168173ffffffffffffffffffffffffffffffffffffffff16145b610441576040517f08c379a0000000000000000000000000000000000000000000000000000000008152600401610438906146fc565b60405180910390fd5b6104496136f2565b6000831161048c576040517f08c379a000000000000000000000000000000000000000000000000000000000815260040161048390614768565b60405180910390fd5b82600360003373ffffffffffffffffffffffffffffffffffffffff1673ffffffffffffffffffffffffffffffffffffffff16815260200190815260200160002060008473ffffffffffffffffffffffffffffffffffffffff1673ffffffffffffffffffffffffffffffffffffffff16815260200190815260200160002054101561054b576040517f08c379a0000000000000000000000000000000000000000000000000000000008152600401610542906147d4565b60405180910390fd5b82600360003373ffffffffffffffffffffffffffffffffffffffff1673ffffffffffffffffffffffffffffffffffffffff16815260200190815260200160002060008473ffffffffffffffffffffffffffffffffffffffff1673ffffffffffffffffffffffffffffffffffffffff16815260200190815260200160002060008282546105d79190614823565b925050819055508173ffffffffffffffffffffffffffffffffffffffff1663a9059cbb33856040518363ffffffff1660e01b8152600401610619929190614857565b602060405180830381600087803b15801561063357600080fd5b505af1158015610647573d6000803e3d6000fd5b505050506040513d601f19601f8201168201806040525081019061066b91906148b8565b50610674613742565b505050565b600160009054906101000a900473ffffffffffffffffffffffffffffffffffffffff1681565b6004602052816000526040600020602052806000526040600020600091509150505481565b6106ce838361374c565b6106d8838361380b565b6106e3838383613880565b6000600560008560ff1660ff168152602001908152602001600020600084815260200190815260200160002060030160009054906101000a900473ffffffffffffffffffffffffffffffffffffffff1690506000600560008660ff1660ff16815260200190815260200160002060008581526020019081526020016000206004015490506000600560008760ff1660ff16815260200190815260200160002060008681526020019081526020016000206005015490506000600560008860ff1660ff168152602001908152602001600020600087815260200190815260200160002060060154905060008473ffffffffffffffffffffffffffffffffffffffff1663313ce5676040518163ffffffff1660e01b815260040160206040518083038186803b15801561081357600080fd5b505afa158015610827573d6000803e3d6000fd5b505050506040513d601f19601f8201168201806040525081019061084b91906148fa565b905060008860ff1614156109de5780600a6108669190614a5a565b8383866108739190614823565b61087d9190614aa5565b6108879190614b2e565b600360003373ffffffffffffffffffffffffffffffffffffffff1673ffffffffffffffffffffffffffffffffffffffff16815260200190815260200160002060008773ffffffffffffffffffffffffffffffffffffffff1673ffffffffffffffffffffffffffffffffffffffff16815260200190815260200160002060008282546109129190614b5f565b9250508190555080600a6109269190614a5a565b8383866109339190614823565b61093d9190614aa5565b6109479190614b2e565b600460003373ffffffffffffffffffffffffffffffffffffffff1673ffffffffffffffffffffffffffffffffffffffff16815260200190815260200160002060008773ffffffffffffffffffffffffffffffffffffffff1673ffffffffffffffffffffffffffffffffffffffff16815260200190815260200160002060008282546109d29190614823565b92505081905550610b1b565b81846109ea9190614823565b600360003373ffffffffffffffffffffffffffffffffffffffff1673ffffffffffffffffffffffffffffffffffffffff16815260200190815260200160002060008773ffffffffffffffffffffffffffffffffffffffff1673ffffffffffffffffffffffffffffffffffffffff1681526020019081526020016000206000828254610a759190614b5f565b925050819055508184610a889190614823565b600460003373ffffffffffffffffffffffffffffffffffffffff1673ffffffffffffffffffffffffffffffffffffffff16815260200190815260200160002060008773ffffffffffffffffffffffffffffffffffffffff1673ffffffffffffffffffffffffffffffffffffffff1681526020019081526020016000206000828254610b139190614823565b925050819055505b600560008960ff1660ff168152602001908152602001600020600088815260200190815260200160002060070154600560008a60ff1660ff1681526020019081526020016000206000888152602001908152602001600020600701819055506000600560008a60ff1660ff168152602001908152602001600020600089815260200190815260200160002060070181905550600660008960ff1660ff1681526020019081526020016000206000815480929190610bd790614bb5565b9190505550600960003373ffffffffffffffffffffffffffffffffffffffff1673ffffffffffffffffffffffffffffffffffffffff1681526020019081526020016000206040518060c001604052806040518060400160405280600b81526020017f43616e43656c4f7264657200000000000000000000000000000000000000000081525081526020018a60ff1681526020018681526020018581526020013373ffffffffffffffffffffffffffffffffffffffff1681526020014281525090806001815401808255809150506001900390600052602060002090600602016000909190919091506000820151816000019080519060200190610cdb929190613cd8565b5060208201518160010160006101000a81548160ff021916908360ff160217905550604082015181600201556060820151816003015560808201518160040160006101000a81548173ffffffffffffffffffffffffffffffffffffffff021916908373ffffffffffffffffffffffffffffffffffffffff16021790555060a0820151816005015550503373ffffffffffffffffffffffffffffffffffffffff167f57df0eb034fa40fbcc1b270268b5413748f12b0d1fad53076a0ae03b079ef573898686604051610dae93929190614bee565b60405180910390a25050505050505050565b6000806000905060008060008760ff1614610e2057600160009054906101000a900473ffffffffffffffffffffffffffffffffffffffff16600260009054906101000a900473ffffffffffffffffffffffffffffffffffffffff16610e67565b600260009054906101000a900473ffffffffffffffffffffffffffffffffffffffff16600160009054906101000a900473ffffffffffffffffffffffffffffffffffffffff165b915091506000808860ff1614610e7e576000610e81565b60015b9050610e8d83886138cf565b6000600660008360ff1660ff1681526020019081526020016000205411610eba57869450505050506119d2565b60008373ffffffffffffffffffffffffffffffffffffffff1663313ce5676040518163ffffffff1660e01b815260040160206040518083038186803b158015610f0257600080fd5b505afa158015610f16573d6000803e3d6000fd5b505050506040513d601f19601f82011682018060405250810190610f3a91906148fa565b90506000600560008460ff1660ff16815260200190815260200160002060007f0000000000000000000000000000000000000000000000000000000000000000815260200190815260200160002060070154905060005b600660008560ff1660ff1681526020019081526020016000205481108015610fb857508987105b1561165a576000600560008660ff1660ff1681526020019081526020016000206000848152602001908152602001600020905060008a111561102b5760018560ff1614156110175780600501548a1015611012575061165a565b61102a565b80600501548a1115611029575061165a565b5b5b6000888c6110399190614823565b90506000826006015483600401546110519190614823565b905060008060018960ff1614156111e6578388600a6110709190614a5a565b8660050154856110809190614aa5565b61108a9190614b2e565b1115611098578391506110c2565b87600a6110a59190614a5a565b8560050154846110b59190614aa5565b6110bf9190614b2e565b91505b600860405180608001604052808b60ff16815260200187600501548b600a6110ea9190614a5a565b866110f59190614aa5565b6110ff9190614b2e565b81526020018760050154815260200142815250908060018154018082558091505060019003906000526020600020906004020160009091909190915060008201518160000160006101000a81548160ff021916908360ff16021790555060208201518160010155604082015181600201556060820151816003015550507fcf8e869c2baea59eda4b856f995e1c602b4b4450e40f966d3d1f3308dcb1b27d8986600501548a600a6111b09190614a5a565b856111bb9190614aa5565b6111c59190614b2e565b87600501546040516111d993929190614bee565b60405180910390a16112ce565b838311156111f6578391506111fa565b8291505b600860405180608001604052808b60ff1681526020018481526020018760050154815260200142815250908060018154018082558091505060019003906000526020600020906004020160009091909190915060008201518160000160006101000a81548160ff021916908360ff16021790555060208201518160010155604082015181600201556060820151816003015550507fcf8e869c2baea59eda4b856f995e1c602b4b4450e40f966d3d1f3308dcb1b27d898387600501546040516112c593929190614bee565b60405180910390a15b818c6112da9190614b5f565b9b5060018960ff16141561135757846005015488600a6112fa9190614a5a565b836113059190614aa5565b61130f9190614b2e565b8560060160008282546113229190614b5f565b92505081905550846005015488600a61133b9190614a5a565b836113469190614aa5565b6113509190614b2e565b905061139c565b8185600601600082825461136b9190614b5f565b9250508190555087600a61137f9190614a5a565b85600501548361138f9190614aa5565b6113999190614b2e565b90505b81600360003373ffffffffffffffffffffffffffffffffffffffff1673ffffffffffffffffffffffffffffffffffffffff16815260200190815260200160002060008d73ffffffffffffffffffffffffffffffffffffffff1673ffffffffffffffffffffffffffffffffffffffff16815260200190815260200160002060008282546114289190614823565b9250508190555081600360008760010160009054906101000a900473ffffffffffffffffffffffffffffffffffffffff1673ffffffffffffffffffffffffffffffffffffffff1673ffffffffffffffffffffffffffffffffffffffff16815260200190815260200160002060008d73ffffffffffffffffffffffffffffffffffffffff1673ffffffffffffffffffffffffffffffffffffffff16815260200190815260200160002060008282546114df9190614b5f565b9250508190555080600360003373ffffffffffffffffffffffffffffffffffffffff1673ffffffffffffffffffffffffffffffffffffffff16815260200190815260200160002060008c73ffffffffffffffffffffffffffffffffffffffff1673ffffffffffffffffffffffffffffffffffffffff16815260200190815260200160002060008282546115729190614b5f565b9250508190555080600460008760010160009054906101000a900473ffffffffffffffffffffffffffffffffffffffff1673ffffffffffffffffffffffffffffffffffffffff1673ffffffffffffffffffffffffffffffffffffffff16815260200190815260200160002060008c73ffffffffffffffffffffffffffffffffffffffff1673ffffffffffffffffffffffffffffffffffffffff16815260200190815260200160002060008282546116299190614823565b925050819055508460050154600a81905550846007015496505050505050808061165290614c25565b915050610f91565b505b6000600660008560ff1660ff168152602001908152602001600020541180156117785750600560008460ff1660ff1681526020019081526020016000206000600560008660ff1660ff16815260200190815260200160002060007f0000000000000000000000000000000000000000000000000000000000000000815260200190815260200160002060070154815260200190815260200160002060040154600560008560ff1660ff1681526020019081526020016000206000600560008760ff1660ff16815260200190815260200160002060007f0000000000000000000000000000000000000000000000000000000000000000815260200190815260200160002060070154815260200190815260200160002060060154145b156117db576117d683600560008660ff1660ff16815260200190815260200160002060007f00000000000000000000000000000000000000000000000000000000000000008152602001908152602001600020600701546000613992565b61165c565b600086146119bd57600960003373ffffffffffffffffffffffffffffffffffffffff1673ffffffffffffffffffffffffffffffffffffffff1681526020019081526020016000206040518060c001604052806040518060400160405280600b81526020017f4d61726b65744f7264657200000000000000000000000000000000000000000081525081526020018560ff1681526020018b8152602001600081526020013373ffffffffffffffffffffffffffffffffffffffff16815260200142815250908060018154018082558091505060019003906000526020600020906006020160009091909190915060008201518160000190805190602001906118e3929190613cd8565b5060208201518160010160006101000a81548160ff021916908360ff160217905550604082015181600201556060820151816003015560808201518160040160006101000a81548173ffffffffffffffffffffffffffffffffffffffff021916908373ffffffffffffffffffffffffffffffffffffffff16021790555060a0820151816005015550503373ffffffffffffffffffffffffffffffffffffffff167fb14914772df32197df268c65e15c6310f95aa8a49a093cbdce78190b14149dfb848b6040516119b4929190614c6e565b60405180910390a25b85896119c99190614823565b96505050505050505b9392505050565b80600160009054906101000a900473ffffffffffffffffffffffffffffffffffffffff1673ffffffffffffffffffffffffffffffffffffffff168173ffffffffffffffffffffffffffffffffffffffff161480611a835750600260009054906101000a900473ffffffffffffffffffffffffffffffffffffffff1673ffffffffffffffffffffffffffffffffffffffff168173ffffffffffffffffffffffffffffffffffffffff16145b611ac2576040517f08c379a0000000000000000000000000000000000000000000000000000000008152600401611ab9906146fc565b60405180910390fd5b611aca6136f2565b60008311611b0d576040517f08c379a0000000000000000000000000000000000000000000000000000000008152600401611b0490614ce3565b60405180910390fd5b828273ffffffffffffffffffffffffffffffffffffffff166370a08231336040518263ffffffff1660e01b8152600401611b479190613ede565b60206040518083038186803b158015611b5f57600080fd5b505afa158015611b73573d6000803e3d6000fd5b505050506040513d601f19601f82011682018060405250810190611b979190614d18565b1015611bd8576040517f08c379a0000000000000000000000000000000000000000000000000000000008152600401611bcf906147d4565b60405180910390fd5b82600360003373ffffffffffffffffffffffffffffffffffffffff1673ffffffffffffffffffffffffffffffffffffffff16815260200190815260200160002060008473ffffffffffffffffffffffffffffffffffffffff1673ffffffffffffffffffffffffffffffffffffffff1681526020019081526020016000206000828254611c649190614b5f565b925050819055508173ffffffffffffffffffffffffffffffffffffffff166323b872dd3330866040518463ffffffff1660e01b8152600401611ca893929190614d45565b602060405180830381600087803b158015611cc257600080fd5b505af1158015611cd6573d6000803e3d6000fd5b505050506040513d601f19601f82011682018060405250810190611cfa91906148b8565b50611d03613742565b505050565b611d1182613a6d565b611d1a83613a6d565b611d24848261380b565b611d5d818386600560008960ff1660ff168152602001908152602001600020600086815260200190815260200160002060070154613ab3565b6000808560ff1614611d9157600160009054906101000a900473ffffffffffffffffffffffffffffffffffffffff16611db5565b600260009054906101000a900473ffffffffffffffffffffffffffffffffffffffff165b905060008173ffffffffffffffffffffffffffffffffffffffff1663313ce5676040518163ffffffff1660e01b815260040160206040518083038186803b158015611dff57600080fd5b505afa158015611e13573d6000803e3d6000fd5b505050506040513d601f19601f82011682018060405250810190611e3791906148fa565b905060008660ff16141561204357611e718282600a611e569190614a5a565b8688611e629190614aa5565b611e6c9190614b2e565b6138cf565b611e9e8682600a611e829190614a5a565b8688611e8e9190614aa5565b611e989190614b2e565b86610dc0565b94508381600a611eae9190614a5a565b86611eb99190614aa5565b611ec39190614b2e565b945060008511611ed45750506125fe565b80600a611ee19190614a5a565b8486611eed9190614aa5565b611ef79190614b2e565b600360003373ffffffffffffffffffffffffffffffffffffffff1673ffffffffffffffffffffffffffffffffffffffff16815260200190815260200160002060008473ffffffffffffffffffffffffffffffffffffffff1673ffffffffffffffffffffffffffffffffffffffff1681526020019081526020016000206000828254611f829190614823565b9250508190555080600a611f969190614a5a565b8486611fa29190614aa5565b611fac9190614b2e565b600460003373ffffffffffffffffffffffffffffffffffffffff1673ffffffffffffffffffffffffffffffffffffffff16815260200190815260200160002060008473ffffffffffffffffffffffffffffffffffffffff1673ffffffffffffffffffffffffffffffffffffffff16815260200190815260200160002060008282546120379190614b5f565b92505081905550612190565b61204d82866138cf565b612058868686610dc0565b9450600085116120695750506125fe565b84600360003373ffffffffffffffffffffffffffffffffffffffff1673ffffffffffffffffffffffffffffffffffffffff16815260200190815260200160002060008473ffffffffffffffffffffffffffffffffffffffff1673ffffffffffffffffffffffffffffffffffffffff16815260200190815260200160002060008282546120f59190614823565b9250508190555084600460003373ffffffffffffffffffffffffffffffffffffffff1673ffffffffffffffffffffffffffffffffffffffff16815260200190815260200160002060008473ffffffffffffffffffffffffffffffffffffffff1673ffffffffffffffffffffffffffffffffffffffff16815260200190815260200160002060008282546121889190614b5f565b925050819055505b604051806101200160405280600760008960ff1660ff1681526020019081526020016000205481526020013373ffffffffffffffffffffffffffffffffffffffff1681526020018760ff1681526020014281526020018373ffffffffffffffffffffffffffffffffffffffff16815260200186815260200185815260200160008152602001600560008960ff1660ff168152602001908152602001600020600086815260200190815260200160002060070154815250600560008860ff1660ff1681526020019081526020016000206000600760008a60ff1660ff1681526020019081526020016000205481526020019081526020016000206000820151816000015560208201518160010160006101000a81548173ffffffffffffffffffffffffffffffffffffffff021916908373ffffffffffffffffffffffffffffffffffffffff16021790555060408201518160010160146101000a81548160ff021916908360ff1602179055506060820151816002015560808201518160030160006101000a81548173ffffffffffffffffffffffffffffffffffffffff021916908373ffffffffffffffffffffffffffffffffffffffff16021790555060a0820151816004015560c0820151816005015560e082015181600601556101008201518160070155905050600760008760ff1660ff16815260200190815260200160002054600560008860ff1660ff168152602001908152602001600020600085815260200190815260200160002060070181905550600660008760ff1660ff16815260200190815260200160002060008154809291906123ed90614c25565b9190505550600760008760ff1660ff168152602001908152602001600020600081548092919061241c90614c25565b9190505550600960003373ffffffffffffffffffffffffffffffffffffffff1673ffffffffffffffffffffffffffffffffffffffff1681526020019081526020016000206040518060c001604052806040518060400160405280600a81526020017f4c696d69744f726465720000000000000000000000000000000000000000000081525081526020018860ff1681526020018781526020018681526020013373ffffffffffffffffffffffffffffffffffffffff1681526020014281525090806001815401808255809150506001900390600052602060002090600602016000909190919091506000820151816000019080519060200190612520929190613cd8565b5060208201518160010160006101000a81548160ff021916908360ff160217905550604082015181600201556060820151816003015560808201518160040160006101000a81548173ffffffffffffffffffffffffffffffffffffffff021916908373ffffffffffffffffffffffffffffffffffffffff16021790555060a0820151816005015550503373ffffffffffffffffffffffffffffffffffffffff167fad51c85f05231b58041fb4f1d4b23575e16b21c5483ac81d15d49f3fcb41878a8787876040516125f393929190614bee565b60405180910390a250505b50505050565b60606000600660008460ff1660ff1681526020019081526020016000205467ffffffffffffffff81111561263b5761263a614d7c565b5b60405190808252806020026020018201604052801561267457816020015b612661613d5e565b8152602001906001900390816126595790505b5090506000600560008560ff1660ff16815260200190815260200160002060007f0000000000000000000000000000000000000000000000000000000000000000815260200190815260200160002060070154905060005b600660008660ff1660ff1681526020019081526020016000205481101561288757600560008660ff1660ff168152602001908152602001600020600083815260200190815260200160002060405180610120016040529081600082015481526020016001820160009054906101000a900473ffffffffffffffffffffffffffffffffffffffff1673ffffffffffffffffffffffffffffffffffffffff1673ffffffffffffffffffffffffffffffffffffffff1681526020016001820160149054906101000a900460ff1660ff1660ff168152602001600282015481526020016003820160009054906101000a900473ffffffffffffffffffffffffffffffffffffffff1673ffffffffffffffffffffffffffffffffffffffff1673ffffffffffffffffffffffffffffffffffffffff16815260200160048201548152602001600582015481526020016006820154815260200160078201548152505083828151811061283b5761283a614dab565b5b6020026020010181905250600560008660ff1660ff16815260200190815260200160002060008381526020019081526020016000206007015491508061288090614c25565b90506126cc565b508192505050919050565b6060600960008373ffffffffffffffffffffffffffffffffffffffff1673ffffffffffffffffffffffffffffffffffffffff168152602001908152602001600020805480602002602001604051908101604052809291908181526020016000905b82821015612a4857838290600052602060002090600602016040518060c001604052908160008201805461292690614e09565b80601f016020809104026020016040519081016040528092919081815260200182805461295290614e09565b801561299f5780601f106129745761010080835404028352916020019161299f565b820191906000526020600020905b81548152906001019060200180831161298257829003601f168201915b505050505081526020016001820160009054906101000a900460ff1660ff1660ff16815260200160028201548152602001600382015481526020016004820160009054906101000a900473ffffffffffffffffffffffffffffffffffffffff1673ffffffffffffffffffffffffffffffffffffffff1673ffffffffffffffffffffffffffffffffffffffff168152602001600582015481525050815260200190600101906128f3565b505050509050919050565b600a5481565b6000612a6483613a6d565b60007f000000000000000000000000000000000000000000000000000000000000000090505b600115612b0d57612aca818585600560008860ff1660ff168152602001908152602001600020600086815260200190815260200160002060070154613b04565b15612ad85780915050612b48565b600560008460ff1660ff1681526020019081526020016000206000828152602001908152602001600020600701549050612a8a565b6040517f08c379a0000000000000000000000000000000000000000000000000000000008152600401612b3f90614e87565b60405180910390fd5b92915050565b6000807f000000000000000000000000000000000000000000000000000000000000000090505b7f0000000000000000000000000000000000000000000000000000000000000000600560008660ff1660ff16815260200190815260200160002060008381526020019081526020016000206007015414612c1757612bd4848483613c93565b15612be25780915050612c52565b600560008560ff1660ff1681526020019081526020016000206000828152602001908152602001600020600701549050612b75565b6040517f08c379a0000000000000000000000000000000000000000000000000000000008152600401612c4990614ef3565b60405180910390fd5b92915050565b60606008805480602002602001604051908101604052809291908181526020016000905b82821015612ce957838290600052602060002090600402016040518060800160405290816000820160009054906101000a900460ff1660ff1660ff168152602001600182015481526020016002820154815260200160038201548152505081526020019060010190612c7c565b50505050905090565b6003602052816000526040600020602052806000526040600020600091509150505481565b600260009054906101000a900473ffffffffffffffffffffffffffffffffffffffff1681565b612d4684613a6d565b612d4f83613a6d565b612d59868661380b565b612d63868261380b565b612d6d868361380b565b81811480612d7a57508185145b156134f857612d89868661374c565b612d94868683613880565b612dcd828588600560008b60ff1660ff16815260200190815260200160002060008a815260200190815260200160002060070154613ab3565b6000600560008860ff1660ff168152602001908152602001600020600087815260200190815260200160002060030160009054906101000a900473ffffffffffffffffffffffffffffffffffffffff1690506000600560008960ff1660ff16815260200190815260200160002060008881526020019081526020016000206004015490506000600560008a60ff1660ff168152602001908152602001600020600089815260200190815260200160002060050154905060008373ffffffffffffffffffffffffffffffffffffffff1663313ce5676040518163ffffffff1660e01b815260040160206040518083038186803b158015612ecb57600080fd5b505afa158015612edf573d6000803e3d6000fd5b505050506040513d601f19601f82011682018060405250810190612f0391906148fa565b905087600560008c60ff1660ff16815260200190815260200160002060008b81526020019081526020016000206005018190555086600560008c60ff1660ff16815260200190815260200160002060008b81526020019081526020016000206004018190555060008a60ff16141561326c5760008284612f839190614aa5565b888a612f8f9190614aa5565b119050801561310157600082600a612fa79190614a5a565b8486612fb39190614aa5565b8a8c612fbf9190614aa5565b612fc99190614823565b612fd39190614b2e565b905080600360003373ffffffffffffffffffffffffffffffffffffffff1673ffffffffffffffffffffffffffffffffffffffff16815260200190815260200160002060008873ffffffffffffffffffffffffffffffffffffffff1673ffffffffffffffffffffffffffffffffffffffff16815260200190815260200160002060008282546130619190614823565b9250508190555080600460003373ffffffffffffffffffffffffffffffffffffffff1673ffffffffffffffffffffffffffffffffffffffff16815260200190815260200160002060008873ffffffffffffffffffffffffffffffffffffffff1673ffffffffffffffffffffffffffffffffffffffff16815260200190815260200160002060008282546130f49190614b5f565b9250508190555050613266565b600082600a6131109190614a5a565b898b61311c9190614aa5565b85876131289190614aa5565b6131329190614823565b61313c9190614b2e565b905080600360003373ffffffffffffffffffffffffffffffffffffffff1673ffffffffffffffffffffffffffffffffffffffff16815260200190815260200160002060008873ffffffffffffffffffffffffffffffffffffffff1673ffffffffffffffffffffffffffffffffffffffff16815260200190815260200160002060008282546131ca9190614b5f565b9250508190555080600460003373ffffffffffffffffffffffffffffffffffffffff1673ffffffffffffffffffffffffffffffffffffffff16815260200190815260200160002060008873ffffffffffffffffffffffffffffffffffffffff1673ffffffffffffffffffffffffffffffffffffffff168152602001908152602001600020600082825461325d9190614823565b92505081905550505b506134ef565b6000838811905080156133b557600084896132879190614823565b905080600360003373ffffffffffffffffffffffffffffffffffffffff1673ffffffffffffffffffffffffffffffffffffffff16815260200190815260200160002060008873ffffffffffffffffffffffffffffffffffffffff1673ffffffffffffffffffffffffffffffffffffffff16815260200190815260200160002060008282546133159190614823565b9250508190555080600460003373ffffffffffffffffffffffffffffffffffffffff1673ffffffffffffffffffffffffffffffffffffffff16815260200190815260200160002060008873ffffffffffffffffffffffffffffffffffffffff1673ffffffffffffffffffffffffffffffffffffffff16815260200190815260200160002060008282546133a89190614b5f565b92505081905550506134ed565b600088856133c39190614823565b905080600360003373ffffffffffffffffffffffffffffffffffffffff1673ffffffffffffffffffffffffffffffffffffffff16815260200190815260200160002060008873ffffffffffffffffffffffffffffffffffffffff1673ffffffffffffffffffffffffffffffffffffffff16815260200190815260200160002060008282546134519190614b5f565b9250508190555080600460003373ffffffffffffffffffffffffffffffffffffffff1673ffffffffffffffffffffffffffffffffffffffff16815260200190815260200160002060008873ffffffffffffffffffffffffffffffffffffffff1673ffffffffffffffffffffffffffffffffffffffff16815260200190815260200160002060008282546134e49190614823565b92505081905550505b505b50505050613510565b6135038686836106c4565b61350f86848685611d08565b5b600960003373ffffffffffffffffffffffffffffffffffffffff1673ffffffffffffffffffffffffffffffffffffffff1681526020019081526020016000206040518060c001604052806040518060400160405280600b81526020017f5570646174654f7264657200000000000000000000000000000000000000000081525081526020018860ff1681526020018581526020018681526020013373ffffffffffffffffffffffffffffffffffffffff168152602001428152509080600181540180825580915050600190039060005260206000209060060201600090919091909150600082015181600001908051906020019061360f929190613cd8565b5060208201518160010160006101000a81548160ff021916908360ff160217905550604082015181600201556060820151816003015560808201518160040160006101000a81548173ffffffffffffffffffffffffffffffffffffffff021916908373ffffffffffffffffffffffffffffffffffffffff16021790555060a0820151816005015550503373ffffffffffffffffffffffffffffffffffffffff167f97a73ac5a51f79b1439728c534b4c03778af1d69889113bd1194d31cbde4e5ed8786866040516136e293929190614bee565b60405180910390a2505050505050565b60026000541415613738576040517f08c379a000000000000000000000000000000000000000000000000000000000815260040161372f90614f5f565b60405180910390fd5b6002600081905550565b6001600081905550565b3373ffffffffffffffffffffffffffffffffffffffff16600560008460ff1660ff168152602001908152602001600020600083815260200190815260200160002060010160009054906101000a900473ffffffffffffffffffffffffffffffffffffffff1673ffffffffffffffffffffffffffffffffffffffff1614613807576040517f08c379a00000000000000000000000000000000000000000000000000000000081526004016137fe90614fcb565b60405180910390fd5b5050565b6000600560008460ff1660ff168152602001908152602001600020600083815260200190815260200160002060070154141561387c576040517f08c379a000000000000000000000000000000000000000000000000000000000815260040161387390615037565b60405180910390fd5b5050565b61388b838383613c93565b6138ca576040517f08c379a00000000000000000000000000000000000000000000000000000000081526004016138c1906150a3565b60405180910390fd5b505050565b80600360003373ffffffffffffffffffffffffffffffffffffffff1673ffffffffffffffffffffffffffffffffffffffff16815260200190815260200160002060008473ffffffffffffffffffffffffffffffffffffffff1673ffffffffffffffffffffffffffffffffffffffff16815260200190815260200160002054101561398e576040517f08c379a00000000000000000000000000000000000000000000000000000000081526004016139859061510f565b60405180910390fd5b5050565b61399c838361380b565b6139a7838383613880565b600560008460ff1660ff168152602001908152602001600020600083815260200190815260200160002060070154600560008560ff1660ff1681526020019081526020016000206000838152602001908152602001600020600701819055506000600560008560ff1660ff168152602001908152602001600020600084815260200190815260200160002060070181905550600660008460ff1660ff1681526020019081526020016000206000815480929190613a6390614bb5565b9190505550505050565b60008111613ab0576040517f08c379a0000000000000000000000000000000000000000000000000000000008152600401613aa79061517b565b60405180910390fd5b50565b613abf84848484613b04565b613afe576040517f08c379a0000000000000000000000000000000000000000000000000000000008152600401613af59061520d565b60405180910390fd5b50505050565b6000808360ff161415613bcf577f0000000000000000000000000000000000000000000000000000000000000000851480613b69575083600560008060ff16815260200190815260200160002060008781526020019081526020016000206005015410155b8015613bc857507f0000000000000000000000000000000000000000000000000000000000000000821480613bc75750600560008060ff16815260200190815260200160002060008381526020019081526020016000206005015484115b5b9050613c8b565b7f0000000000000000000000000000000000000000000000000000000000000000851480613c2857508360056000600160ff16815260200190815260200160002060008781526020019081526020016000206005015411155b8015613c8857507f0000000000000000000000000000000000000000000000000000000000000000821480613c87575060056000600160ff16815260200190815260200160002060008381526020019081526020016000206005015484105b5b90505b949350505050565b6000613c9f848361380b565b82600560008660ff1660ff1681526020019081526020016000206000848152602001908152602001600020600701541490509392505050565b828054613ce490614e09565b90600052602060002090601f016020900481019282613d065760008555613d4d565b82601f10613d1f57805160ff1916838001178555613d4d565b82800160010185558215613d4d579182015b82811115613d4c578251825591602001919060010190613d31565b5b509050613d5a9190613dd9565b5090565b60405180610120016040528060008152602001600073ffffffffffffffffffffffffffffffffffffffff168152602001600060ff16815260200160008152602001600073ffffffffffffffffffffffffffffffffffffffff168152602001600081526020016000815260200160008152602001600081525090565b5b80821115613df2576000816000905550600101613dda565b5090565b600080fd5b6000819050919050565b613e0e81613dfb565b8114613e1957600080fd5b50565b600081359050613e2b81613e05565b92915050565b600073ffffffffffffffffffffffffffffffffffffffff82169050919050565b6000613e5c82613e31565b9050919050565b613e6c81613e51565b8114613e7757600080fd5b50565b600081359050613e8981613e63565b92915050565b60008060408385031215613ea657613ea5613df6565b5b6000613eb485828601613e1c565b9250506020613ec585828601613e7a565b9150509250929050565b613ed881613e51565b82525050565b6000602082019050613ef36000830184613ecf565b92915050565b60008060408385031215613f1057613f0f613df6565b5b6000613f1e85828601613e7a565b9250506020613f2f85828601613e7a565b9150509250929050565b613f4281613dfb565b82525050565b6000602082019050613f5d6000830184613f39565b92915050565b600060ff82169050919050565b613f7981613f63565b8114613f8457600080fd5b50565b600081359050613f9681613f70565b92915050565b600080600060608486031215613fb557613fb4613df6565b5b6000613fc386828701613f87565b9350506020613fd486828701613e1c565b9250506040613fe586828701613e1c565b9150509250925092565b6000806000806080858703121561400957614008613df6565b5b600061401787828801613f87565b945050602061402887828801613e1c565b935050604061403987828801613e1c565b925050606061404a87828801613e1c565b91505092959194509250565b60006020828403121561406c5761406b613df6565b5b600061407a84828501613f87565b91505092915050565b600081519050919050565b600082825260208201905092915050565b6000819050602082019050919050565b6140b881613dfb565b82525050565b6140c781613e51565b82525050565b6140d681613f63565b82525050565b610120820160008201516140f360008501826140af565b50602082015161410660208501826140be565b50604082015161411960408501826140cd565b50606082015161412c60608501826140af565b50608082015161413f60808501826140be565b5060a082015161415260a08501826140af565b5060c082015161416560c08501826140af565b5060e082015161417860e08501826140af565b5061010082015161418d6101008501826140af565b50505050565b600061419f83836140dc565b6101208301905092915050565b6000602082019050919050565b60006141c482614083565b6141ce818561408e565b93506141d98361409f565b8060005b8381101561420a5781516141f18882614193565b97506141fc836141ac565b9250506001810190506141dd565b5085935050505092915050565b6000602082019050818103600083015261423181846141b9565b905092915050565b60006020828403121561424f5761424e613df6565b5b600061425d84828501613e7a565b91505092915050565b600081519050919050565b600082825260208201905092915050565b6000819050602082019050919050565b600081519050919050565b600082825260208201905092915050565b60005b838110156142cc5780820151818401526020810190506142b1565b838111156142db576000848401525b50505050565b6000601f19601f8301169050919050565b60006142fd82614292565b614307818561429d565b93506143178185602086016142ae565b614320816142e1565b840191505092915050565b600060c083016000830151848203600086015261434882826142f2565b915050602083015161435d60208601826140cd565b50604083015161437060408601826140af565b50606083015161438360608601826140af565b50608083015161439660808601826140be565b5060a08301516143a960a08601826140af565b508091505092915050565b60006143c0838361432b565b905092915050565b6000602082019050919050565b60006143e082614266565b6143ea8185614271565b9350836020820285016143fc85614282565b8060005b85811015614438578484038952815161441985826143b4565b9450614424836143c8565b925060208a01995050600181019050614400565b50829750879550505050505092915050565b6000602082019050818103600083015261446481846143d5565b905092915050565b6000806040838503121561448357614482613df6565b5b600061449185828601613e1c565b92505060206144a285828601613f87565b9150509250929050565b600080604083850312156144c3576144c2613df6565b5b60006144d185828601613f87565b92505060206144e285828601613e1c565b9150509250929050565b600081519050919050565b600082825260208201905092915050565b6000819050602082019050919050565b60808201600082015161452e60008501826140cd565b50602082015161454160208501826140af565b50604082015161455460408501826140af565b50606082015161456760608501826140af565b50505050565b60006145798383614518565b60808301905092915050565b6000602082019050919050565b600061459d826144ec565b6145a781856144f7565b93506145b283614508565b8060005b838110156145e35781516145ca888261456d565b97506145d583614585565b9250506001810190506145b6565b5085935050505092915050565b6000602082019050818103600083015261460a8184614592565b905092915050565b60008060008060008060c0878903121561462f5761462e613df6565b5b600061463d89828a01613f87565b965050602061464e89828a01613e1c565b955050604061465f89828a01613e1c565b945050606061467089828a01613e1c565b935050608061468189828a01613e1c565b92505060a061469289828a01613e1c565b9150509295509295509295565b600082825260208201905092915050565b7f696e76616c696420746f6b656e00000000000000000000000000000000000000600082015250565b60006146e6600d8361469f565b91506146f1826146b0565b602082019050919050565b60006020820190508181036000830152614715816146d9565b9050919050565b7f63616e2774207769746864726177203000000000000000000000000000000000600082015250565b600061475260108361469f565b915061475d8261471c565b602082019050919050565b6000602082019050818103600083015261478181614745565b9050919050565b7f62616c616e6365206e6f742073756666696369656e7400000000000000000000600082015250565b60006147be60168361469f565b91506147c982614788565b602082019050919050565b600060208201905081810360008301526147ed816147b1565b9050919050565b7f4e487b7100000000000000000000000000000000000000000000000000000000600052601160045260246000fd5b600061482e82613dfb565b915061483983613dfb565b92508282101561484c5761484b6147f4565b5b828203905092915050565b600060408201905061486c6000830185613ecf565b6148796020830184613f39565b9392505050565b60008115159050919050565b61489581614880565b81146148a057600080fd5b50565b6000815190506148b28161488c565b92915050565b6000602082840312156148ce576148cd613df6565b5b60006148dc848285016148a3565b91505092915050565b6000815190506148f481613f70565b92915050565b6000602082840312156149105761490f613df6565b5b600061491e848285016148e5565b91505092915050565b60008160011c9050919050565b6000808291508390505b600185111561497e5780860481111561495a576149596147f4565b5b60018516156149695780820291505b808102905061497785614927565b945061493e565b94509492505050565b6000826149975760019050614a53565b816149a55760009050614a53565b81600181146149bb57600281146149c5576149f4565b6001915050614a53565b60ff8411156149d7576149d66147f4565b5b8360020a9150848211156149ee576149ed6147f4565b5b50614a53565b5060208310610133831016604e8410600b8410161715614a295782820a905083811115614a2457614a236147f4565b5b614a53565b614a368484846001614934565b92509050818404811115614a4d57614a4c6147f4565b5b81810290505b9392505050565b6000614a6582613dfb565b9150614a7083613f63565b9250614a9d7fffffffffffffffffffffffffffffffffffffffffffffffffffffffffffffffff8484614987565b905092915050565b6000614ab082613dfb565b9150614abb83613dfb565b9250817fffffffffffffffffffffffffffffffffffffffffffffffffffffffffffffffff0483118215151615614af457614af36147f4565b5b828202905092915050565b7f4e487b7100000000000000000000000000000000000000000000000000000000600052601260045260246000fd5b6000614b3982613dfb565b9150614b4483613dfb565b925082614b5457614b53614aff565b5b828204905092915050565b6000614b6a82613dfb565b9150614b7583613dfb565b9250827fffffffffffffffffffffffffffffffffffffffffffffffffffffffffffffffff03821115614baa57614ba96147f4565b5b828201905092915050565b6000614bc082613dfb565b91506000821415614bd457614bd36147f4565b5b600182039050919050565b614be881613f63565b82525050565b6000606082019050614c036000830186614bdf565b614c106020830185613f39565b614c1d6040830184613f39565b949350505050565b6000614c3082613dfb565b91507fffffffffffffffffffffffffffffffffffffffffffffffffffffffffffffffff821415614c6357614c626147f4565b5b600182019050919050565b6000604082019050614c836000830185614bdf565b614c906020830184613f39565b9392505050565b7f63616e2774206465706f73697420300000000000000000000000000000000000600082015250565b6000614ccd600f8361469f565b9150614cd882614c97565b602082019050919050565b60006020820190508181036000830152614cfc81614cc0565b9050919050565b600081519050614d1281613e05565b92915050565b600060208284031215614d2e57614d2d613df6565b5b6000614d3c84828501614d03565b91505092915050565b6000606082019050614d5a6000830186613ecf565b614d676020830185613ecf565b614d746040830184613f39565b949350505050565b7f4e487b7100000000000000000000000000000000000000000000000000000000600052604160045260246000fd5b7f4e487b7100000000000000000000000000000000000000000000000000000000600052603260045260246000fd5b7f4e487b7100000000000000000000000000000000000000000000000000000000600052602260045260246000fd5b60006002820490506001821680614e2157607f821691505b60208210811415614e3557614e34614dda565b5b50919050565b7f5f66696e64496e64657820726576657274000000000000000000000000000000600082015250565b6000614e7160118361469f565b9150614e7c82614e3b565b602082019050919050565b60006020820190508181036000830152614ea081614e64565b9050919050565b7f5f66696e64507265764f72646572206e6f742065786973740000000000000000600082015250565b6000614edd60188361469f565b9150614ee882614ea7565b602082019050919050565b60006020820190508181036000830152614f0c81614ed0565b9050919050565b7f5265656e7472616e637947756172643a207265656e7472616e742063616c6c00600082015250565b6000614f49601f8361469f565b9150614f5482614f13565b602082019050919050565b60006020820190508181036000830152614f7881614f3c565b9050919050565b7f6e6f74206f776e65722074686973206f72646572000000000000000000000000600082015250565b6000614fb560148361469f565b9150614fc082614f7f565b602082019050919050565b60006020820190508181036000830152614fe481614fa8565b9050919050565b7f696e646578206e6f742065786973740000000000000000000000000000000000600082015250565b6000615021600f8361469f565b915061502c82614feb565b602082019050919050565b6000602082019050818103600083015261505081615014565b9050919050565b7f6e6f742070726576496e64657800000000000000000000000000000000000000600082015250565b600061508d600d8361469f565b915061509882615057565b602082019050919050565b600060208201905081810360008301526150bc81615080565b9050919050565b7f696e73756666696369656e742062616c616e6365000000000000000000000000600082015250565b60006150f960148361469f565b9150615104826150c3565b602082019050919050565b60006020820190508181036000830152615128816150ec565b9050919050565b7f5a65726f00000000000000000000000000000000000000000000000000000000600082015250565b600061516560048361469f565b91506151708261512f565b602082019050919050565b6000602082019050818103600083015261519481615158565b9050919050565b7f706f736974696f6e20696e206c696e6b6564206c697374206e6f74206f72646560008201527f7200000000000000000000000000000000000000000000000000000000000000602082015250565b60006151f760218361469f565b91506152028261519b565b604082019050919050565b60006020820190508181036000830152615226816151ea565b905091905056fea26469706673582212209241abf6dc381eeef32cdb2b8fc32ae7a2535ad881cdaa79e976533ac1b399e364736f6c63430008090033a2646970667358221220699370fff82b8b92a8bdf2e2f6281aa915097d3b632fdb2e14b1f508479e4ac264736f6c63430008090033",
  "linkReferences": {},
  "deployedLinkReferences": {}
}