{
  "_format": "hh-sol-artifact-1",
  "contractName": "Wallet",
  "sourceName": "contracts/wallet.sol",
  "abi": [
    {
      "inputs": [
        {
          "internalType": "address",
          "name": "_token0",
          "type": "address"
        },
        {
          "internalType": "address",
          "name": "_token1",
          "type": "address"
        }
      ],
      "stateMutability": "nonpayable",
      "type": "constructor"
    },
    {
      "inputs": [
        {
          "internalType": "address",
          "name": "",
          "type": "address"
        },
        {
          "internalType": "address",
          "name": "",
          "type": "address"
        }
      ],
      "name": "balancesSpot",
      "outputs": [
        {
          "internalType": "uint256",
          "name": "",
          "type": "uint256"
        }
      ],
      "stateMutability": "view",
      "type": "function"
    },
    {
      "inputs": [
        {
          "internalType": "address",
          "name": "",
          "type": "address"
        },
        {
          "internalType": "address",
          "name": "",
          "type": "address"
        }
      ],
      "name": "balancesTrade",
      "outputs": [
        {
          "internalType": "uint256",
          "name": "",
          "type": "uint256"
        }
      ],
      "stateMutability": "view",
      "type": "function"
    },
    {
      "inputs": [
        {
          "internalType": "uint256",
          "name": "amount",
          "type": "uint256"
        },
        {
          "internalType": "address",
          "name": "token",
          "type": "address"
        }
      ],
      "name": "deposit",
      "outputs": [],
      "stateMutability": "nonpayable",
      "type": "function"
    },
    {
      "inputs": [],
      "name": "token0",
      "outputs": [
        {
          "internalType": "address",
          "name": "",
          "type": "address"
        }
      ],
      "stateMutability": "view",
      "type": "function"
    },
    {
      "inputs": [],
      "name": "token1",
      "outputs": [
        {
          "internalType": "address",
          "name": "",
          "type": "address"
        }
      ],
      "stateMutability": "view",
      "type": "function"
    },
    {
      "inputs": [
        {
          "internalType": "uint256",
          "name": "amount",
          "type": "uint256"
        },
        {
          "internalType": "address",
          "name": "token",
          "type": "address"
        }
      ],
      "name": "withdraw",
      "outputs": [],
      "stateMutability": "nonpayable",
      "type": "function"
    }
  ],
  "bytecode": "0x60806040523480156200001157600080fd5b5060405162000f9438038062000f94833981810160405281019062000037919062000133565b600160008190555081600160006101000a81548173ffffffffffffffffffffffffffffffffffffffff021916908373ffffffffffffffffffffffffffffffffffffffff16021790555080600260006101000a81548173ffffffffffffffffffffffffffffffffffffffff021916908373ffffffffffffffffffffffffffffffffffffffff16021790555050506200017a565b600080fd5b600073ffffffffffffffffffffffffffffffffffffffff82169050919050565b6000620000fb82620000ce565b9050919050565b6200010d81620000ee565b81146200011957600080fd5b50565b6000815190506200012d8162000102565b92915050565b600080604083850312156200014d576200014c620000c9565b5b60006200015d858286016200011c565b925050602062000170858286016200011c565b9150509250929050565b610e0a806200018a6000396000f3fe608060405234801561001057600080fd5b50600436106100615760003560e01c8062f714ce146100665780630dfe16811461008257806312a2e5df146100a05780636e553f65146100d0578063d063db8d146100ec578063d21220a71461011c575b600080fd5b610080600480360381019061007b9190610913565b61013a565b005b61008a61045b565b6040516100979190610962565b60405180910390f35b6100ba60048036038101906100b5919061097d565b610481565b6040516100c791906109cc565b60405180910390f35b6100ea60048036038101906100e59190610913565b6104a6565b005b6101066004803603810190610101919061097d565b6107d5565b60405161011391906109cc565b60405180910390f35b6101246107fa565b6040516101319190610962565b60405180910390f35b80600160009054906101000a900473ffffffffffffffffffffffffffffffffffffffff1673ffffffffffffffffffffffffffffffffffffffff168173ffffffffffffffffffffffffffffffffffffffff1614806101e45750600260009054906101000a900473ffffffffffffffffffffffffffffffffffffffff1673ffffffffffffffffffffffffffffffffffffffff168173ffffffffffffffffffffffffffffffffffffffff16145b610223576040517f08c379a000000000000000000000000000000000000000000000000000000000815260040161021a90610a44565b60405180910390fd5b61022b610820565b6000831161026e576040517f08c379a000000000000000000000000000000000000000000000000000000000815260040161026590610ab0565b60405180910390fd5b82600360003373ffffffffffffffffffffffffffffffffffffffff1673ffffffffffffffffffffffffffffffffffffffff16815260200190815260200160002060008473ffffffffffffffffffffffffffffffffffffffff1673ffffffffffffffffffffffffffffffffffffffff16815260200190815260200160002054101561032d576040517f08c379a000000000000000000000000000000000000000000000000000000000815260040161032490610b1c565b60405180910390fd5b82600360003373ffffffffffffffffffffffffffffffffffffffff1673ffffffffffffffffffffffffffffffffffffffff16815260200190815260200160002060008473ffffffffffffffffffffffffffffffffffffffff1673ffffffffffffffffffffffffffffffffffffffff16815260200190815260200160002060008282546103b99190610b6b565b925050819055508173ffffffffffffffffffffffffffffffffffffffff1663a9059cbb33856040518363ffffffff1660e01b81526004016103fb929190610b9f565b602060405180830381600087803b15801561041557600080fd5b505af1158015610429573d6000803e3d6000fd5b505050506040513d601f19601f8201168201806040525081019061044d9190610c00565b50610456610870565b505050565b600160009054906101000a900473ffffffffffffffffffffffffffffffffffffffff1681565b6004602052816000526040600020602052806000526040600020600091509150505481565b80600160009054906101000a900473ffffffffffffffffffffffffffffffffffffffff1673ffffffffffffffffffffffffffffffffffffffff168173ffffffffffffffffffffffffffffffffffffffff1614806105505750600260009054906101000a900473ffffffffffffffffffffffffffffffffffffffff1673ffffffffffffffffffffffffffffffffffffffff168173ffffffffffffffffffffffffffffffffffffffff16145b61058f576040517f08c379a000000000000000000000000000000000000000000000000000000000815260040161058690610a44565b60405180910390fd5b610597610820565b600083116105da576040517f08c379a00000000000000000000000000000000000000000000000000000000081526004016105d190610c79565b60405180910390fd5b828273ffffffffffffffffffffffffffffffffffffffff166370a08231336040518263ffffffff1660e01b81526004016106149190610962565b60206040518083038186803b15801561062c57600080fd5b505afa158015610640573d6000803e3d6000fd5b505050506040513d601f19601f820116820180604052508101906106649190610cae565b10156106a5576040517f08c379a000000000000000000000000000000000000000000000000000000000815260040161069c90610b1c565b60405180910390fd5b82600360003373ffffffffffffffffffffffffffffffffffffffff1673ffffffffffffffffffffffffffffffffffffffff16815260200190815260200160002060008473ffffffffffffffffffffffffffffffffffffffff1673ffffffffffffffffffffffffffffffffffffffff16815260200190815260200160002060008282546107319190610cdb565b925050819055508173ffffffffffffffffffffffffffffffffffffffff166323b872dd3330866040518463ffffffff1660e01b815260040161077593929190610d31565b602060405180830381600087803b15801561078f57600080fd5b505af11580156107a3573d6000803e3d6000fd5b505050506040513d601f19601f820116820180604052508101906107c79190610c00565b506107d0610870565b505050565b6003602052816000526040600020602052806000526040600020600091509150505481565b600260009054906101000a900473ffffffffffffffffffffffffffffffffffffffff1681565b60026000541415610866576040517f08c379a000000000000000000000000000000000000000000000000000000000815260040161085d90610db4565b60405180910390fd5b6002600081905550565b6001600081905550565b600080fd5b6000819050919050565b6108928161087f565b811461089d57600080fd5b50565b6000813590506108af81610889565b92915050565b600073ffffffffffffffffffffffffffffffffffffffff82169050919050565b60006108e0826108b5565b9050919050565b6108f0816108d5565b81146108fb57600080fd5b50565b60008135905061090d816108e7565b92915050565b6000806040838503121561092a5761092961087a565b5b6000610938858286016108a0565b9250506020610949858286016108fe565b9150509250929050565b61095c816108d5565b82525050565b60006020820190506109776000830184610953565b92915050565b600080604083850312156109945761099361087a565b5b60006109a2858286016108fe565b92505060206109b3858286016108fe565b9150509250929050565b6109c68161087f565b82525050565b60006020820190506109e160008301846109bd565b92915050565b600082825260208201905092915050565b7f696e76616c696420746f6b656e00000000000000000000000000000000000000600082015250565b6000610a2e600d836109e7565b9150610a39826109f8565b602082019050919050565b60006020820190508181036000830152610a5d81610a21565b9050919050565b7f63616e2774207769746864726177203000000000000000000000000000000000600082015250565b6000610a9a6010836109e7565b9150610aa582610a64565b602082019050919050565b60006020820190508181036000830152610ac981610a8d565b9050919050565b7f62616c616e6365206e6f742073756666696369656e7400000000000000000000600082015250565b6000610b066016836109e7565b9150610b1182610ad0565b602082019050919050565b60006020820190508181036000830152610b3581610af9565b9050919050565b7f4e487b7100000000000000000000000000000000000000000000000000000000600052601160045260246000fd5b6000610b768261087f565b9150610b818361087f565b925082821015610b9457610b93610b3c565b5b828203905092915050565b6000604082019050610bb46000830185610953565b610bc160208301846109bd565b9392505050565b60008115159050919050565b610bdd81610bc8565b8114610be857600080fd5b50565b600081519050610bfa81610bd4565b92915050565b600060208284031215610c1657610c1561087a565b5b6000610c2484828501610beb565b91505092915050565b7f63616e2774206465706f73697420300000000000000000000000000000000000600082015250565b6000610c63600f836109e7565b9150610c6e82610c2d565b602082019050919050565b60006020820190508181036000830152610c9281610c56565b9050919050565b600081519050610ca881610889565b92915050565b600060208284031215610cc457610cc361087a565b5b6000610cd284828501610c99565b91505092915050565b6000610ce68261087f565b9150610cf18361087f565b9250827fffffffffffffffffffffffffffffffffffffffffffffffffffffffffffffffff03821115610d2657610d25610b3c565b5b828201905092915050565b6000606082019050610d466000830186610953565b610d536020830185610953565b610d6060408301846109bd565b949350505050565b7f5265656e7472616e637947756172643a207265656e7472616e742063616c6c00600082015250565b6000610d9e601f836109e7565b9150610da982610d68565b602082019050919050565b60006020820190508181036000830152610dcd81610d91565b905091905056fea2646970667358221220657c73df9553f6d1f285687a3b74da4826800d451042f36f7460cf16d77c53d764736f6c63430008090033",
  "linkReferences": {},
  "deployedLinkReferences": {}
}